{"contracts/Groth16Verifier.sol":{"Groth16Verifier":{"abi":[{"inputs":[],"stateMutability":"nonpayable","type":"constructor"},{"inputs":[],"name":"owner","outputs":[{"internalType":"address","name":"","type":"address"}],"stateMutability":"view","type":"function"},{"inputs":[{"internalType":"uint256[2]","name":"alpha1","type":"uint256[2]"},{"internalType":"uint256[2][2]","name":"beta2","type":"uint256[2][2]"},{"internalType":"uint256[2][2]","name":"gamma2","type":"uint256[2][2]"},{"internalType":"uint256[2][2]","name":"delta2","type":"uint256[2][2]"},{"internalType":"uint256[2][]","name":"IC","type":"uint256[2][]"}],"name":"setVerifyingKey","outputs":[],"stateMutability":"nonpayable","type":"function"},{"inputs":[{"internalType":"uint256[2]","name":"a","type":"uint256[2]"},{"internalType":"uint256[2][2]","name":"b","type":"uint256[2][2]"},{"internalType":"uint256[2]","name":"c","type":"uint256[2]"},{"internalType":"uint256[]","name":"input","type":"uint256[]"}],"name":"verifyProof","outputs":[{"internalType":"bool","name":"","type":"bool"}],"stateMutability":"view","type":"function"},{"inputs":[],"name":"vkSet","outputs":[{"internalType":"bool","name":"","type":"bool"}],"stateMutability":"view","type":"function"}],"evm":{"bytecode":{"linkReferences":{},"object":"6080806040523461002857600f80546001600160a01b03191633179055610dac908161002e8239f35b600080fdfe6080604052600436101561001257600080fd5b6000803560e01c908163211e1fcc1461005a575080638da5cb5b1461005557806399324039146100505763c32e370e1461004b57600080fd5b610396565b6102b0565b610081565b3461007e578060031936011261007e5760ff600f5460a01c16151560805260206080f35b80fd5b346100aa5760003660031901126100aa57600f546040516001600160a01b039091168152602090f35b600080fd5b634e487b7160e01b600052604160045260246000fd5b6040810190811067ffffffffffffffff8211176100e157604052565b6100af565b6080810190811067ffffffffffffffff8211176100e157604052565b90601f8019910116810190811067ffffffffffffffff8211176100e157604052565b919060405192610133846100c5565b8390604081019283116100aa57905b82821061014e57505050565b8135815260209182019101610142565b80602312156100aa5760405190610174826100c5565b816044916044116100aa576004905b8282106101905750505090565b8135815260209182019101610183565b9080601f830112156100aa576101b591610124565b90565b9060408051926101c7846100c5565b8360c4918060c4116100aa576044915b8383106101e5575050505050565b602085916101f384866101a0565b8152019201916101d7565b80606312156100aa576101b5906101b8565b8060e312156100aa576040805191610227836100c5565b82610144918083116100aa5760c4915b83831061024657505050505090565b6020859161025484866101a0565b815201920191610237565b8061016312156100aa576040805191610277836100c5565b826101c4918083116100aa57610144915b83831061029757505050505090565b602085916102a584866101a0565b815201920191610288565b346100aa576101e03660031901126100aa576102cb3661015e565b6102d4366101fe565b906102de36610210565b6102e73661025f565b906101c4359367ffffffffffffffff938486116100aa57366023870112156100aa5785600401359485116100e1576020956040966040519661032f60208260051b0189610102565b8088526024602089019160061b840101923684116100aa57602401905b83821061036357505050506103619550610652565b005b828a9161037036856101a0565b81520191019061034c565b906004916044116100aa57565b9060c491610104116100aa57565b346100aa576101203660031901126100aa576103b13661037b565b3660c4116100aa576103c236610388565b90610104359067ffffffffffffffff908183116100aa57366023840112156100aa5782600401359182116100aa573660248360051b850101116100aa576104229360246104109401916108d6565b60405190151581529081906020820190565b0390f35b634e487b7160e01b600052601160045260246000fd5b60005b6002811061044b575050565b6001906020835193019281550161043f565b9060005b6002811061046e57505050565b600190602083519301928185015501610461565b600280916000905b8282106104975750505050565b826020826104a8600194518861045d565b0194019101909261048a565b6006916000915b600290818410156104e357906020826104d7600194518861045d565b019401920191926104bb565b5050915050565b600a916000915b600290818410156104e3579060208261050d600194518861045d565b019401920191926104f1565b600e546000906000600e558061052d575050565b6001916001600160ff1b038216820361058d57600e600052600080516020610d578339815191529160011b8201915b8281106105695750505050565b6002810184825b8281106105825750505060020161055c565b848155018590610570565b610426565b634e487b7160e01b600052603260045260246000fd5b80518210156105bc5760209160051b010190565b610592565b600e54156105bc57600e600052600080516020610d5783398151915290600090565b600e548110156105bc57600e60005260011b600080516020610d578339815191520190600090565b600e5490680100000000000000008210156100e1576001820180600e558210156105bc5761065091600e60005260011b600080516020610d578339815191520161045d565b565b600f54949594909392906001600160a01b031633036106d5576106836106889261067e61068d9661043c565b610482565b6104b4565b6104ea565b610695610519565b60005b82518110156106bd57806106b76106b1600193866105a8565b5161060b565b01610698565b50600f805460ff60a01b1916600160a01b1790559050565b60405162461bcd60e51b81526020600482015260096024820152682737ba1037bbb732b960b91b6044820152606490fd5b906001820180921161058d57565b1561071b57565b60405162461bcd60e51b8152602060048201526015602482015274092dce0eae840d8cadccee8d040dad2e6dac2e8c6d605b1b6044820152606490fd5b60405190600080835b6002821061077557505050610650826100c5565b6001602081928554815201930191019091610761565b60405191906000835b600282106107a857505050610650826100c5565b6001602081928554815201930191019091610794565b91908110156105bc5760051b0190565b156107d557565b60405162461bcd60e51b815260206004820152601860248201527f496e7075742065786365656473206669656c642073697a6500000000000000006044820152606490fd5b60405190610827826100c5565b6002806000845b82821061083b5750505050565b82602060019261084a8761078b565b81520194019101909261082e565b604051610864816100c5565b6006916000825b60029081831015610893579060206001926108858861078b565b81520195019101909361086b565b505050909150565b6040516108a7816100c5565b600a916000825b60029081831015610893579060206001926108c88861078b565b8152019501910190936108ae565b93929190916108f26108ee600f5460ff9060a01c1690565b1590565b6109fe579061090c61090383610706565b600e5414610714565b61091d6109176105c1565b5061078b565b916000915b8183106109815750505061094361093e6101b594953690610124565b610b76565b9161094d366101b8565b91610956610758565b61095e61081a565b9061097261096a610858565b943690610124565b9461097b61089b565b96610c2d565b9091926109f56001916109c07f30644e72e131a029b85045b68181585d97816a916871ca8d3c208c16d87cfd476109b98888886107be565b35106107ce565b6109ef6109d46109cf88610706565b6105e3565b506109ea6109e38989896107be565b359161078b565b610a51565b90610ae8565b93019190610922565b50600193505050565b6040519061030080830183811067ffffffffffffffff8211176100e157604052368337565b604051906020820182811067ffffffffffffffff8211176100e1576040526020368337565b91906040908151610a61816100c5565b8236823780948351606081019381851067ffffffffffffffff8611176100e1576020606093879687528436853780518452015160208301528482015260076107cf195a01fa15610aae5750565b5162461bcd60e51b81526020600482015260146024820152731150c81cd8d85b185c881b5d5b0819985a5b195960621b6044820152606490fd5b919091604080916080825191610afd836100c5565b833684376020839781865193610b12856100e6565b85368637805185520151828401528051868401520151606082015260066107cf195a01fa15610b3e5750565b5162461bcd60e51b81526020600482015260126024820152711150c81859191a5d1a5bdb8819985a5b195960721b6044820152606490fd5b60408051610b83816100c5565b36903780511580610bde575b6101b557602060405191610ba2836100c5565b805183527f30644e72e131a029b85045b68181585d97816a916871ca8d3c208c16d87cfd47918291015106810390811161058d57602082015290565b50602081015115610b8f565b15610bf157565b60405162461bcd60e51b815260206004820152601460248201527314185a5c9a5b99c818da1958dac819985a5b195960621b6044820152606490fd5b909560a061030098939496610d5098610c44610a07565b9785899651875260209a8b809a81998298838098818098015182850152610c6c815160200190565b51604085015280515160608501520180516020015160808401525151910152805160c08e0152015160e08c01528051602001516101008c01528051516101208c0152018051602001516101408b015251516101608a015280516101808a015201516101a08801528051602001516101c08801528051516101e0880152018051602001516102008701525151610220860152805161024086015201516102608401528051602001516102808401528051516102a0840152018051602001516102c083015251516102e0820152610d3f610a2c565b93849160086107cf195a01fa610bea565b5115159056febb7b4a454dc3493923482f07822329ed19e8244eff582cc204f8554c3620c3fda264697066735822122097eb8069e1700ebd0d353c8abe1fed693e109f323124b8daafade3727e7eaae664736f6c63430008180033","opcodes":"PUSH1 0x80 DUP1 PUSH1 0x40 MSTORE CALLVALUE PUSH2 0x28 JUMPI PUSH1 0xF DUP1 SLOAD PUSH1 0x1 PUSH1 0x1 PUSH1 0xA0 SHL SUB NOT AND CALLER OR SWAP1 SSTORE PUSH2 0xDAC SWAP1 DUP2 PUSH2 0x2E DUP3 CODECOPY RETURN JUMPDEST PUSH1 0x0 DUP1 REVERT INVALID PUSH1 0x80 PUSH1 0x40 MSTORE PUSH1 0x4 CALLDATASIZE LT ISZERO PUSH2 0x12 JUMPI PUSH1 0x0 DUP1 REVERT JUMPDEST PUSH1 0x0 DUP1 CALLDATALOAD PUSH1 0xE0 SHR SWAP1 DUP2 PUSH4 0x211E1FCC EQ PUSH2 0x5A JUMPI POP DUP1 PUSH4 0x8DA5CB5B EQ PUSH2 0x55 JUMPI DUP1 PUSH4 0x99324039 EQ PUSH2 0x50 JUMPI PUSH4 0xC32E370E EQ PUSH2 0x4B JUMPI PUSH1 0x0 DUP1 REVERT JUMPDEST PUSH2 0x396 JUMP JUMPDEST PUSH2 0x2B0 JUMP JUMPDEST PUSH2 0x81 JUMP JUMPDEST CALLVALUE PUSH2 0x7E JUMPI DUP1 PUSH1 0x3 NOT CALLDATASIZE ADD SLT PUSH2 0x7E JUMPI PUSH1 0xFF PUSH1 0xF SLOAD PUSH1 0xA0 SHR AND ISZERO ISZERO PUSH1 0x80 MSTORE PUSH1 0x20 PUSH1 0x80 RETURN JUMPDEST DUP1 REVERT JUMPDEST CALLVALUE PUSH2 0xAA JUMPI PUSH1 0x0 CALLDATASIZE PUSH1 0x3 NOT ADD SLT PUSH2 0xAA JUMPI PUSH1 0xF SLOAD PUSH1 0x40 MLOAD PUSH1 0x1 PUSH1 0x1 PUSH1 0xA0 SHL SUB SWAP1 SWAP2 AND DUP2 MSTORE PUSH1 0x20 SWAP1 RETURN JUMPDEST PUSH1 0x0 DUP1 REVERT JUMPDEST PUSH4 0x4E487B71 PUSH1 0xE0 SHL PUSH1 0x0 MSTORE PUSH1 0x41 PUSH1 0x4 MSTORE PUSH1 0x24 PUSH1 0x0 REVERT JUMPDEST PUSH1 0x40 DUP2 ADD SWAP1 DUP2 LT PUSH8 0xFFFFFFFFFFFFFFFF DUP3 GT OR PUSH2 0xE1 JUMPI PUSH1 0x40 MSTORE JUMP JUMPDEST PUSH2 0xAF JUMP JUMPDEST PUSH1 0x80 DUP2 ADD SWAP1 DUP2 LT PUSH8 0xFFFFFFFFFFFFFFFF DUP3 GT OR PUSH2 0xE1 JUMPI PUSH1 0x40 MSTORE JUMP JUMPDEST SWAP1 PUSH1 0x1F DUP1 NOT SWAP2 ADD AND DUP2 ADD SWAP1 DUP2 LT PUSH8 0xFFFFFFFFFFFFFFFF DUP3 GT OR PUSH2 0xE1 JUMPI PUSH1 0x40 MSTORE JUMP JUMPDEST SWAP2 SWAP1 PUSH1 0x40 MLOAD SWAP3 PUSH2 0x133 DUP5 PUSH2 0xC5 JUMP JUMPDEST DUP4 SWAP1 PUSH1 0x40 DUP2 ADD SWAP3 DUP4 GT PUSH2 0xAA JUMPI SWAP1 JUMPDEST DUP3 DUP3 LT PUSH2 0x14E JUMPI POP POP POP JUMP JUMPDEST DUP2 CALLDATALOAD DUP2 MSTORE PUSH1 0x20 SWAP2 DUP3 ADD SWAP2 ADD PUSH2 0x142 JUMP JUMPDEST DUP1 PUSH1 0x23 SLT ISZERO PUSH2 0xAA JUMPI PUSH1 0x40 MLOAD SWAP1 PUSH2 0x174 DUP3 PUSH2 0xC5 JUMP JUMPDEST DUP2 PUSH1 0x44 SWAP2 PUSH1 0x44 GT PUSH2 0xAA JUMPI PUSH1 0x4 SWAP1 JUMPDEST DUP3 DUP3 LT PUSH2 0x190 JUMPI POP POP POP SWAP1 JUMP JUMPDEST DUP2 CALLDATALOAD DUP2 MSTORE PUSH1 0x20 SWAP2 DUP3 ADD SWAP2 ADD PUSH2 0x183 JUMP JUMPDEST SWAP1 DUP1 PUSH1 0x1F DUP4 ADD SLT ISZERO PUSH2 0xAA JUMPI PUSH2 0x1B5 SWAP2 PUSH2 0x124 JUMP JUMPDEST SWAP1 JUMP JUMPDEST SWAP1 PUSH1 0x40 DUP1 MLOAD SWAP3 PUSH2 0x1C7 DUP5 PUSH2 0xC5 JUMP JUMPDEST DUP4 PUSH1 0xC4 SWAP2 DUP1 PUSH1 0xC4 GT PUSH2 0xAA JUMPI PUSH1 0x44 SWAP2 JUMPDEST DUP4 DUP4 LT PUSH2 0x1E5 JUMPI POP POP POP POP POP JUMP JUMPDEST PUSH1 0x20 DUP6 SWAP2 PUSH2 0x1F3 DUP5 DUP7 PUSH2 0x1A0 JUMP JUMPDEST DUP2 MSTORE ADD SWAP3 ADD SWAP2 PUSH2 0x1D7 JUMP JUMPDEST DUP1 PUSH1 0x63 SLT ISZERO PUSH2 0xAA JUMPI PUSH2 0x1B5 SWAP1 PUSH2 0x1B8 JUMP JUMPDEST DUP1 PUSH1 0xE3 SLT ISZERO PUSH2 0xAA JUMPI PUSH1 0x40 DUP1 MLOAD SWAP2 PUSH2 0x227 DUP4 PUSH2 0xC5 JUMP JUMPDEST DUP3 PUSH2 0x144 SWAP2 DUP1 DUP4 GT PUSH2 0xAA JUMPI PUSH1 0xC4 SWAP2 JUMPDEST DUP4 DUP4 LT PUSH2 0x246 JUMPI POP POP POP POP POP SWAP1 JUMP JUMPDEST PUSH1 0x20 DUP6 SWAP2 PUSH2 0x254 DUP5 DUP7 PUSH2 0x1A0 JUMP JUMPDEST DUP2 MSTORE ADD SWAP3 ADD SWAP2 PUSH2 0x237 JUMP JUMPDEST DUP1 PUSH2 0x163 SLT ISZERO PUSH2 0xAA JUMPI PUSH1 0x40 DUP1 MLOAD SWAP2 PUSH2 0x277 DUP4 PUSH2 0xC5 JUMP JUMPDEST DUP3 PUSH2 0x1C4 SWAP2 DUP1 DUP4 GT PUSH2 0xAA JUMPI PUSH2 0x144 SWAP2 JUMPDEST DUP4 DUP4 LT PUSH2 0x297 JUMPI POP POP POP POP POP SWAP1 JUMP JUMPDEST PUSH1 0x20 DUP6 SWAP2 PUSH2 0x2A5 DUP5 DUP7 PUSH2 0x1A0 JUMP JUMPDEST DUP2 MSTORE ADD SWAP3 ADD SWAP2 PUSH2 0x288 JUMP JUMPDEST CALLVALUE PUSH2 0xAA JUMPI PUSH2 0x1E0 CALLDATASIZE PUSH1 0x3 NOT ADD SLT PUSH2 0xAA JUMPI PUSH2 0x2CB CALLDATASIZE PUSH2 0x15E JUMP JUMPDEST PUSH2 0x2D4 CALLDATASIZE PUSH2 0x1FE JUMP JUMPDEST SWAP1 PUSH2 0x2DE CALLDATASIZE PUSH2 0x210 JUMP JUMPDEST PUSH2 0x2E7 CALLDATASIZE PUSH2 0x25F JUMP JUMPDEST SWAP1 PUSH2 0x1C4 CALLDATALOAD SWAP4 PUSH8 0xFFFFFFFFFFFFFFFF SWAP4 DUP5 DUP7 GT PUSH2 0xAA JUMPI CALLDATASIZE PUSH1 0x23 DUP8 ADD SLT ISZERO PUSH2 0xAA JUMPI DUP6 PUSH1 0x4 ADD CALLDATALOAD SWAP5 DUP6 GT PUSH2 0xE1 JUMPI PUSH1 0x20 SWAP6 PUSH1 0x40 SWAP7 PUSH1 0x40 MLOAD SWAP7 PUSH2 0x32F PUSH1 0x20 DUP3 PUSH1 0x5 SHL ADD DUP10 PUSH2 0x102 JUMP JUMPDEST DUP1 DUP9 MSTORE PUSH1 0x24 PUSH1 0x20 DUP10 ADD SWAP2 PUSH1 0x6 SHL DUP5 ADD ADD SWAP3 CALLDATASIZE DUP5 GT PUSH2 0xAA JUMPI PUSH1 0x24 ADD SWAP1 JUMPDEST DUP4 DUP3 LT PUSH2 0x363 JUMPI POP POP POP POP PUSH2 0x361 SWAP6 POP PUSH2 0x652 JUMP JUMPDEST STOP JUMPDEST DUP3 DUP11 SWAP2 PUSH2 0x370 CALLDATASIZE DUP6 PUSH2 0x1A0 JUMP JUMPDEST DUP2 MSTORE ADD SWAP2 ADD SWAP1 PUSH2 0x34C JUMP JUMPDEST SWAP1 PUSH1 0x4 SWAP2 PUSH1 0x44 GT PUSH2 0xAA JUMPI JUMP JUMPDEST SWAP1 PUSH1 0xC4 SWAP2 PUSH2 0x104 GT PUSH2 0xAA JUMPI JUMP JUMPDEST CALLVALUE PUSH2 0xAA JUMPI PUSH2 0x120 CALLDATASIZE PUSH1 0x3 NOT ADD SLT PUSH2 0xAA JUMPI PUSH2 0x3B1 CALLDATASIZE PUSH2 0x37B JUMP JUMPDEST CALLDATASIZE PUSH1 0xC4 GT PUSH2 0xAA JUMPI PUSH2 0x3C2 CALLDATASIZE PUSH2 0x388 JUMP JUMPDEST SWAP1 PUSH2 0x104 CALLDATALOAD SWAP1 PUSH8 0xFFFFFFFFFFFFFFFF SWAP1 DUP2 DUP4 GT PUSH2 0xAA JUMPI CALLDATASIZE PUSH1 0x23 DUP5 ADD SLT ISZERO PUSH2 0xAA JUMPI DUP3 PUSH1 0x4 ADD CALLDATALOAD SWAP2 DUP3 GT PUSH2 0xAA JUMPI CALLDATASIZE PUSH1 0x24 DUP4 PUSH1 0x5 SHL DUP6 ADD ADD GT PUSH2 0xAA JUMPI PUSH2 0x422 SWAP4 PUSH1 0x24 PUSH2 0x410 SWAP5 ADD SWAP2 PUSH2 0x8D6 JUMP JUMPDEST PUSH1 0x40 MLOAD SWAP1 ISZERO ISZERO DUP2 MSTORE SWAP1 DUP2 SWAP1 PUSH1 0x20 DUP3 ADD SWAP1 JUMP JUMPDEST SUB SWAP1 RETURN JUMPDEST PUSH4 0x4E487B71 PUSH1 0xE0 SHL PUSH1 0x0 MSTORE PUSH1 0x11 PUSH1 0x4 MSTORE PUSH1 0x24 PUSH1 0x0 REVERT JUMPDEST PUSH1 0x0 JUMPDEST PUSH1 0x2 DUP2 LT PUSH2 0x44B JUMPI POP POP JUMP JUMPDEST PUSH1 0x1 SWAP1 PUSH1 0x20 DUP4 MLOAD SWAP4 ADD SWAP3 DUP2 SSTORE ADD PUSH2 0x43F JUMP JUMPDEST SWAP1 PUSH1 0x0 JUMPDEST PUSH1 0x2 DUP2 LT PUSH2 0x46E JUMPI POP POP POP JUMP JUMPDEST PUSH1 0x1 SWAP1 PUSH1 0x20 DUP4 MLOAD SWAP4 ADD SWAP3 DUP2 DUP6 ADD SSTORE ADD PUSH2 0x461 JUMP JUMPDEST PUSH1 0x2 DUP1 SWAP2 PUSH1 0x0 SWAP1 JUMPDEST DUP3 DUP3 LT PUSH2 0x497 JUMPI POP POP POP POP JUMP JUMPDEST DUP3 PUSH1 0x20 DUP3 PUSH2 0x4A8 PUSH1 0x1 SWAP5 MLOAD DUP9 PUSH2 0x45D JUMP JUMPDEST ADD SWAP5 ADD SWAP2 ADD SWAP1 SWAP3 PUSH2 0x48A JUMP JUMPDEST PUSH1 0x6 SWAP2 PUSH1 0x0 SWAP2 JUMPDEST PUSH1 0x2 SWAP1 DUP2 DUP5 LT ISZERO PUSH2 0x4E3 JUMPI SWAP1 PUSH1 0x20 DUP3 PUSH2 0x4D7 PUSH1 0x1 SWAP5 MLOAD DUP9 PUSH2 0x45D JUMP JUMPDEST ADD SWAP5 ADD SWAP3 ADD SWAP2 SWAP3 PUSH2 0x4BB JUMP JUMPDEST POP POP SWAP2 POP POP JUMP JUMPDEST PUSH1 0xA SWAP2 PUSH1 0x0 SWAP2 JUMPDEST PUSH1 0x2 SWAP1 DUP2 DUP5 LT ISZERO PUSH2 0x4E3 JUMPI SWAP1 PUSH1 0x20 DUP3 PUSH2 0x50D PUSH1 0x1 SWAP5 MLOAD DUP9 PUSH2 0x45D JUMP JUMPDEST ADD SWAP5 ADD SWAP3 ADD SWAP2 SWAP3 PUSH2 0x4F1 JUMP JUMPDEST PUSH1 0xE SLOAD PUSH1 0x0 SWAP1 PUSH1 0x0 PUSH1 0xE SSTORE DUP1 PUSH2 0x52D JUMPI POP POP JUMP JUMPDEST PUSH1 0x1 SWAP2 PUSH1 0x1 PUSH1 0x1 PUSH1 0xFF SHL SUB DUP3 AND DUP3 SUB PUSH2 0x58D JUMPI PUSH1 0xE PUSH1 0x0 MSTORE PUSH1 0x0 DUP1 MLOAD PUSH1 0x20 PUSH2 0xD57 DUP4 CODECOPY DUP2 MLOAD SWAP2 MSTORE SWAP2 PUSH1 0x1 SHL DUP3 ADD SWAP2 JUMPDEST DUP3 DUP2 LT PUSH2 0x569 JUMPI POP POP POP POP JUMP JUMPDEST PUSH1 0x2 DUP2 ADD DUP5 DUP3 JUMPDEST DUP3 DUP2 LT PUSH2 0x582 JUMPI POP POP POP PUSH1 0x2 ADD PUSH2 0x55C JUMP JUMPDEST DUP5 DUP2 SSTORE ADD DUP6 SWAP1 PUSH2 0x570 JUMP JUMPDEST PUSH2 0x426 JUMP JUMPDEST PUSH4 0x4E487B71 PUSH1 0xE0 SHL PUSH1 0x0 MSTORE PUSH1 0x32 PUSH1 0x4 MSTORE PUSH1 0x24 PUSH1 0x0 REVERT JUMPDEST DUP1 MLOAD DUP3 LT ISZERO PUSH2 0x5BC JUMPI PUSH1 0x20 SWAP2 PUSH1 0x5 SHL ADD ADD SWAP1 JUMP JUMPDEST PUSH2 0x592 JUMP JUMPDEST PUSH1 0xE SLOAD ISZERO PUSH2 0x5BC JUMPI PUSH1 0xE PUSH1 0x0 MSTORE PUSH1 0x0 DUP1 MLOAD PUSH1 0x20 PUSH2 0xD57 DUP4 CODECOPY DUP2 MLOAD SWAP2 MSTORE SWAP1 PUSH1 0x0 SWAP1 JUMP JUMPDEST PUSH1 0xE SLOAD DUP2 LT ISZERO PUSH2 0x5BC JUMPI PUSH1 0xE PUSH1 0x0 MSTORE PUSH1 0x1 SHL PUSH1 0x0 DUP1 MLOAD PUSH1 0x20 PUSH2 0xD57 DUP4 CODECOPY DUP2 MLOAD SWAP2 MSTORE ADD SWAP1 PUSH1 0x0 SWAP1 JUMP JUMPDEST PUSH1 0xE SLOAD SWAP1 PUSH9 0x10000000000000000 DUP3 LT ISZERO PUSH2 0xE1 JUMPI PUSH1 0x1 DUP3 ADD DUP1 PUSH1 0xE SSTORE DUP3 LT ISZERO PUSH2 0x5BC JUMPI PUSH2 0x650 SWAP2 PUSH1 0xE PUSH1 0x0 MSTORE PUSH1 0x1 SHL PUSH1 0x0 DUP1 MLOAD PUSH1 0x20 PUSH2 0xD57 DUP4 CODECOPY DUP2 MLOAD SWAP2 MSTORE ADD PUSH2 0x45D JUMP JUMPDEST JUMP JUMPDEST PUSH1 0xF SLOAD SWAP5 SWAP6 SWAP5 SWAP1 SWAP4 SWAP3 SWAP1 PUSH1 0x1 PUSH1 0x1 PUSH1 0xA0 SHL SUB AND CALLER SUB PUSH2 0x6D5 JUMPI PUSH2 0x683 PUSH2 0x688 SWAP3 PUSH2 0x67E PUSH2 0x68D SWAP7 PUSH2 0x43C JUMP JUMPDEST PUSH2 0x482 JUMP JUMPDEST PUSH2 0x4B4 JUMP JUMPDEST PUSH2 0x4EA JUMP JUMPDEST PUSH2 0x695 PUSH2 0x519 JUMP JUMPDEST PUSH1 0x0 JUMPDEST DUP3 MLOAD DUP2 LT ISZERO PUSH2 0x6BD JUMPI DUP1 PUSH2 0x6B7 PUSH2 0x6B1 PUSH1 0x1 SWAP4 DUP7 PUSH2 0x5A8 JUMP JUMPDEST MLOAD PUSH2 0x60B JUMP JUMPDEST ADD PUSH2 0x698 JUMP JUMPDEST POP PUSH1 0xF DUP1 SLOAD PUSH1 0xFF PUSH1 0xA0 SHL NOT AND PUSH1 0x1 PUSH1 0xA0 SHL OR SWAP1 SSTORE SWAP1 POP JUMP JUMPDEST PUSH1 0x40 MLOAD PUSH3 0x461BCD PUSH1 0xE5 SHL DUP2 MSTORE PUSH1 0x20 PUSH1 0x4 DUP3 ADD MSTORE PUSH1 0x9 PUSH1 0x24 DUP3 ADD MSTORE PUSH9 0x2737BA1037BBB732B9 PUSH1 0xB9 SHL PUSH1 0x44 DUP3 ADD MSTORE PUSH1 0x64 SWAP1 REVERT JUMPDEST SWAP1 PUSH1 0x1 DUP3 ADD DUP1 SWAP3 GT PUSH2 0x58D JUMPI JUMP JUMPDEST ISZERO PUSH2 0x71B JUMPI JUMP JUMPDEST PUSH1 0x40 MLOAD PUSH3 0x461BCD PUSH1 0xE5 SHL DUP2 MSTORE PUSH1 0x20 PUSH1 0x4 DUP3 ADD MSTORE PUSH1 0x15 PUSH1 0x24 DUP3 ADD MSTORE PUSH21 0x92DCE0EAE840D8CADCCEE8D040DAD2E6DAC2E8C6D PUSH1 0x5B SHL PUSH1 0x44 DUP3 ADD MSTORE PUSH1 0x64 SWAP1 REVERT JUMPDEST PUSH1 0x40 MLOAD SWAP1 PUSH1 0x0 DUP1 DUP4 JUMPDEST PUSH1 0x2 DUP3 LT PUSH2 0x775 JUMPI POP POP POP PUSH2 0x650 DUP3 PUSH2 0xC5 JUMP JUMPDEST PUSH1 0x1 PUSH1 0x20 DUP2 SWAP3 DUP6 SLOAD DUP2 MSTORE ADD SWAP4 ADD SWAP2 ADD SWAP1 SWAP2 PUSH2 0x761 JUMP JUMPDEST PUSH1 0x40 MLOAD SWAP2 SWAP1 PUSH1 0x0 DUP4 JUMPDEST PUSH1 0x2 DUP3 LT PUSH2 0x7A8 JUMPI POP POP POP PUSH2 0x650 DUP3 PUSH2 0xC5 JUMP JUMPDEST PUSH1 0x1 PUSH1 0x20 DUP2 SWAP3 DUP6 SLOAD DUP2 MSTORE ADD SWAP4 ADD SWAP2 ADD SWAP1 SWAP2 PUSH2 0x794 JUMP JUMPDEST SWAP2 SWAP1 DUP2 LT ISZERO PUSH2 0x5BC JUMPI PUSH1 0x5 SHL ADD SWAP1 JUMP JUMPDEST ISZERO PUSH2 0x7D5 JUMPI JUMP JUMPDEST PUSH1 0x40 MLOAD PUSH3 0x461BCD PUSH1 0xE5 SHL DUP2 MSTORE PUSH1 0x20 PUSH1 0x4 DUP3 ADD MSTORE PUSH1 0x18 PUSH1 0x24 DUP3 ADD MSTORE PUSH32 0x496E7075742065786365656473206669656C642073697A650000000000000000 PUSH1 0x44 DUP3 ADD MSTORE PUSH1 0x64 SWAP1 REVERT JUMPDEST PUSH1 0x40 MLOAD SWAP1 PUSH2 0x827 DUP3 PUSH2 0xC5 JUMP JUMPDEST PUSH1 0x2 DUP1 PUSH1 0x0 DUP5 JUMPDEST DUP3 DUP3 LT PUSH2 0x83B JUMPI POP POP POP POP JUMP JUMPDEST DUP3 PUSH1 0x20 PUSH1 0x1 SWAP3 PUSH2 0x84A DUP8 PUSH2 0x78B JUMP JUMPDEST DUP2 MSTORE ADD SWAP5 ADD SWAP2 ADD SWAP1 SWAP3 PUSH2 0x82E JUMP JUMPDEST PUSH1 0x40 MLOAD PUSH2 0x864 DUP2 PUSH2 0xC5 JUMP JUMPDEST PUSH1 0x6 SWAP2 PUSH1 0x0 DUP3 JUMPDEST PUSH1 0x2 SWAP1 DUP2 DUP4 LT ISZERO PUSH2 0x893 JUMPI SWAP1 PUSH1 0x20 PUSH1 0x1 SWAP3 PUSH2 0x885 DUP9 PUSH2 0x78B JUMP JUMPDEST DUP2 MSTORE ADD SWAP6 ADD SWAP2 ADD SWAP1 SWAP4 PUSH2 0x86B JUMP JUMPDEST POP POP POP SWAP1 SWAP2 POP JUMP JUMPDEST PUSH1 0x40 MLOAD PUSH2 0x8A7 DUP2 PUSH2 0xC5 JUMP JUMPDEST PUSH1 0xA SWAP2 PUSH1 0x0 DUP3 JUMPDEST PUSH1 0x2 SWAP1 DUP2 DUP4 LT ISZERO PUSH2 0x893 JUMPI SWAP1 PUSH1 0x20 PUSH1 0x1 SWAP3 PUSH2 0x8C8 DUP9 PUSH2 0x78B JUMP JUMPDEST DUP2 MSTORE ADD SWAP6 ADD SWAP2 ADD SWAP1 SWAP4 PUSH2 0x8AE JUMP JUMPDEST SWAP4 SWAP3 SWAP2 SWAP1 SWAP2 PUSH2 0x8F2 PUSH2 0x8EE PUSH1 0xF SLOAD PUSH1 0xFF SWAP1 PUSH1 0xA0 SHR AND SWAP1 JUMP JUMPDEST ISZERO SWAP1 JUMP JUMPDEST PUSH2 0x9FE JUMPI SWAP1 PUSH2 0x90C PUSH2 0x903 DUP4 PUSH2 0x706 JUMP JUMPDEST PUSH1 0xE SLOAD EQ PUSH2 0x714 JUMP JUMPDEST PUSH2 0x91D PUSH2 0x917 PUSH2 0x5C1 JUMP JUMPDEST POP PUSH2 0x78B JUMP JUMPDEST SWAP2 PUSH1 0x0 SWAP2 JUMPDEST DUP2 DUP4 LT PUSH2 0x981 JUMPI POP POP POP PUSH2 0x943 PUSH2 0x93E PUSH2 0x1B5 SWAP5 SWAP6 CALLDATASIZE SWAP1 PUSH2 0x124 JUMP JUMPDEST PUSH2 0xB76 JUMP JUMPDEST SWAP2 PUSH2 0x94D CALLDATASIZE PUSH2 0x1B8 JUMP JUMPDEST SWAP2 PUSH2 0x956 PUSH2 0x758 JUMP JUMPDEST PUSH2 0x95E PUSH2 0x81A JUMP JUMPDEST SWAP1 PUSH2 0x972 PUSH2 0x96A PUSH2 0x858 JUMP JUMPDEST SWAP5 CALLDATASIZE SWAP1 PUSH2 0x124 JUMP JUMPDEST SWAP5 PUSH2 0x97B PUSH2 0x89B JUMP JUMPDEST SWAP7 PUSH2 0xC2D JUMP JUMPDEST SWAP1 SWAP2 SWAP3 PUSH2 0x9F5 PUSH1 0x1 SWAP2 PUSH2 0x9C0 PUSH32 0x30644E72E131A029B85045B68181585D97816A916871CA8D3C208C16D87CFD47 PUSH2 0x9B9 DUP9 DUP9 DUP9 PUSH2 0x7BE JUMP JUMPDEST CALLDATALOAD LT PUSH2 0x7CE JUMP JUMPDEST PUSH2 0x9EF PUSH2 0x9D4 PUSH2 0x9CF DUP9 PUSH2 0x706 JUMP JUMPDEST PUSH2 0x5E3 JUMP JUMPDEST POP PUSH2 0x9EA PUSH2 0x9E3 DUP10 DUP10 DUP10 PUSH2 0x7BE JUMP JUMPDEST CALLDATALOAD SWAP2 PUSH2 0x78B JUMP JUMPDEST PUSH2 0xA51 JUMP JUMPDEST SWAP1 PUSH2 0xAE8 JUMP JUMPDEST SWAP4 ADD SWAP2 SWAP1 PUSH2 0x922 JUMP JUMPDEST POP PUSH1 0x1 SWAP4 POP POP POP JUMP JUMPDEST PUSH1 0x40 MLOAD SWAP1 PUSH2 0x300 DUP1 DUP4 ADD DUP4 DUP2 LT PUSH8 0xFFFFFFFFFFFFFFFF DUP3 GT OR PUSH2 0xE1 JUMPI PUSH1 0x40 MSTORE CALLDATASIZE DUP4 CALLDATACOPY JUMP JUMPDEST PUSH1 0x40 MLOAD SWAP1 PUSH1 0x20 DUP3 ADD DUP3 DUP2 LT PUSH8 0xFFFFFFFFFFFFFFFF DUP3 GT OR PUSH2 0xE1 JUMPI PUSH1 0x40 MSTORE PUSH1 0x20 CALLDATASIZE DUP4 CALLDATACOPY JUMP JUMPDEST SWAP2 SWAP1 PUSH1 0x40 SWAP1 DUP2 MLOAD PUSH2 0xA61 DUP2 PUSH2 0xC5 JUMP JUMPDEST DUP3 CALLDATASIZE DUP3 CALLDATACOPY DUP1 SWAP5 DUP4 MLOAD PUSH1 0x60 DUP2 ADD SWAP4 DUP2 DUP6 LT PUSH8 0xFFFFFFFFFFFFFFFF DUP7 GT OR PUSH2 0xE1 JUMPI PUSH1 0x20 PUSH1 0x60 SWAP4 DUP8 SWAP7 DUP8 MSTORE DUP5 CALLDATASIZE DUP6 CALLDATACOPY DUP1 MLOAD DUP5 MSTORE ADD MLOAD PUSH1 0x20 DUP4 ADD MSTORE DUP5 DUP3 ADD MSTORE PUSH1 0x7 PUSH2 0x7CF NOT GAS ADD STATICCALL ISZERO PUSH2 0xAAE JUMPI POP JUMP JUMPDEST MLOAD PUSH3 0x461BCD PUSH1 0xE5 SHL DUP2 MSTORE PUSH1 0x20 PUSH1 0x4 DUP3 ADD MSTORE PUSH1 0x14 PUSH1 0x24 DUP3 ADD MSTORE PUSH20 0x1150C81CD8D85B185C881B5D5B0819985A5B1959 PUSH1 0x62 SHL PUSH1 0x44 DUP3 ADD MSTORE PUSH1 0x64 SWAP1 REVERT JUMPDEST SWAP2 SWAP1 SWAP2 PUSH1 0x40 DUP1 SWAP2 PUSH1 0x80 DUP3 MLOAD SWAP2 PUSH2 0xAFD DUP4 PUSH2 0xC5 JUMP JUMPDEST DUP4 CALLDATASIZE DUP5 CALLDATACOPY PUSH1 0x20 DUP4 SWAP8 DUP2 DUP7 MLOAD SWAP4 PUSH2 0xB12 DUP6 PUSH2 0xE6 JUMP JUMPDEST DUP6 CALLDATASIZE DUP7 CALLDATACOPY DUP1 MLOAD DUP6 MSTORE ADD MLOAD DUP3 DUP5 ADD MSTORE DUP1 MLOAD DUP7 DUP5 ADD MSTORE ADD MLOAD PUSH1 0x60 DUP3 ADD MSTORE PUSH1 0x6 PUSH2 0x7CF NOT GAS ADD STATICCALL ISZERO PUSH2 0xB3E JUMPI POP JUMP JUMPDEST MLOAD PUSH3 0x461BCD PUSH1 0xE5 SHL DUP2 MSTORE PUSH1 0x20 PUSH1 0x4 DUP3 ADD MSTORE PUSH1 0x12 PUSH1 0x24 DUP3 ADD MSTORE PUSH18 0x1150C81859191A5D1A5BDB8819985A5B1959 PUSH1 0x72 SHL PUSH1 0x44 DUP3 ADD MSTORE PUSH1 0x64 SWAP1 REVERT JUMPDEST PUSH1 0x40 DUP1 MLOAD PUSH2 0xB83 DUP2 PUSH2 0xC5 JUMP JUMPDEST CALLDATASIZE SWAP1 CALLDATACOPY DUP1 MLOAD ISZERO DUP1 PUSH2 0xBDE JUMPI JUMPDEST PUSH2 0x1B5 JUMPI PUSH1 0x20 PUSH1 0x40 MLOAD SWAP2 PUSH2 0xBA2 DUP4 PUSH2 0xC5 JUMP JUMPDEST DUP1 MLOAD DUP4 MSTORE PUSH32 0x30644E72E131A029B85045B68181585D97816A916871CA8D3C208C16D87CFD47 SWAP2 DUP3 SWAP2 ADD MLOAD MOD DUP2 SUB SWAP1 DUP2 GT PUSH2 0x58D JUMPI PUSH1 0x20 DUP3 ADD MSTORE SWAP1 JUMP JUMPDEST POP PUSH1 0x20 DUP2 ADD MLOAD ISZERO PUSH2 0xB8F JUMP JUMPDEST ISZERO PUSH2 0xBF1 JUMPI JUMP JUMPDEST PUSH1 0x40 MLOAD PUSH3 0x461BCD PUSH1 0xE5 SHL DUP2 MSTORE PUSH1 0x20 PUSH1 0x4 DUP3 ADD MSTORE PUSH1 0x14 PUSH1 0x24 DUP3 ADD MSTORE PUSH20 0x14185A5C9A5B99C818DA1958DAC819985A5B1959 PUSH1 0x62 SHL PUSH1 0x44 DUP3 ADD MSTORE PUSH1 0x64 SWAP1 REVERT JUMPDEST SWAP1 SWAP6 PUSH1 0xA0 PUSH2 0x300 SWAP9 SWAP4 SWAP5 SWAP7 PUSH2 0xD50 SWAP9 PUSH2 0xC44 PUSH2 0xA07 JUMP JUMPDEST SWAP8 DUP6 DUP10 SWAP7 MLOAD DUP8 MSTORE PUSH1 0x20 SWAP11 DUP12 DUP1 SWAP11 DUP2 SWAP10 DUP3 SWAP9 DUP4 DUP1 SWAP9 DUP2 DUP1 SWAP9 ADD MLOAD DUP3 DUP6 ADD MSTORE PUSH2 0xC6C DUP2 MLOAD PUSH1 0x20 ADD SWAP1 JUMP JUMPDEST MLOAD PUSH1 0x40 DUP6 ADD MSTORE DUP1 MLOAD MLOAD PUSH1 0x60 DUP6 ADD MSTORE ADD DUP1 MLOAD PUSH1 0x20 ADD MLOAD PUSH1 0x80 DUP5 ADD MSTORE MLOAD MLOAD SWAP2 ADD MSTORE DUP1 MLOAD PUSH1 0xC0 DUP15 ADD MSTORE ADD MLOAD PUSH1 0xE0 DUP13 ADD MSTORE DUP1 MLOAD PUSH1 0x20 ADD MLOAD PUSH2 0x100 DUP13 ADD MSTORE DUP1 MLOAD MLOAD PUSH2 0x120 DUP13 ADD MSTORE ADD DUP1 MLOAD PUSH1 0x20 ADD MLOAD PUSH2 0x140 DUP12 ADD MSTORE MLOAD MLOAD PUSH2 0x160 DUP11 ADD MSTORE DUP1 MLOAD PUSH2 0x180 DUP11 ADD MSTORE ADD MLOAD PUSH2 0x1A0 DUP9 ADD MSTORE DUP1 MLOAD PUSH1 0x20 ADD MLOAD PUSH2 0x1C0 DUP9 ADD MSTORE DUP1 MLOAD MLOAD PUSH2 0x1E0 DUP9 ADD MSTORE ADD DUP1 MLOAD PUSH1 0x20 ADD MLOAD PUSH2 0x200 DUP8 ADD MSTORE MLOAD MLOAD PUSH2 0x220 DUP7 ADD MSTORE DUP1 MLOAD PUSH2 0x240 DUP7 ADD MSTORE ADD MLOAD PUSH2 0x260 DUP5 ADD MSTORE DUP1 MLOAD PUSH1 0x20 ADD MLOAD PUSH2 0x280 DUP5 ADD MSTORE DUP1 MLOAD MLOAD PUSH2 0x2A0 DUP5 ADD MSTORE ADD DUP1 MLOAD PUSH1 0x20 ADD MLOAD PUSH2 0x2C0 DUP4 ADD MSTORE MLOAD MLOAD PUSH2 0x2E0 DUP3 ADD MSTORE PUSH2 0xD3F PUSH2 0xA2C JUMP JUMPDEST SWAP4 DUP5 SWAP2 PUSH1 0x8 PUSH2 0x7CF NOT GAS ADD STATICCALL PUSH2 0xBEA JUMP JUMPDEST MLOAD ISZERO ISZERO SWAP1 JUMP INVALID 0xBB PUSH28 0x4A454DC3493923482F07822329ED19E8244EFF582CC204F8554C3620 0xC3 REVERT LOG2 PUSH5 0x6970667358 0x22 SLT KECCAK256 SWAP8 0xEB DUP1 PUSH10 0xE1700EBD0D353C8ABE1F 0xED PUSH10 0x3E109F323124B8DAAFAD 0xE3 PUSH19 0x7E7EAAE664736F6C6343000818003300000000 "},"methodIdentifiers":{"owner()":"8da5cb5b","setVerifyingKey(uint256[2],uint256[2][2],uint256[2][2],uint256[2][2],uint256[2][])":"99324039","verifyProof(uint256[2],uint256[2][2],uint256[2],uint256[])":"c32e370e","vkSet()":"211e1fcc"}}}}}