{"contracts/PPREV.sol":{"PPREV":{"abi":[{"inputs":[{"internalType":"address","name":"_zkVerifier","type":"address"}],"stateMutability":"nonpayable","type":"constructor"},{"anonymous":false,"inputs":[{"indexed":true,"internalType":"bytes32","name":"appId","type":"bytes32"},{"indexed":true,"internalType":"bytes32","name":"adHash","type":"bytes32"}],"name":"ApplicationExpired","type":"event"},{"anonymous":false,"inputs":[{"indexed":true,"internalType":"bytes32","name":"appId","type":"bytes32"},{"indexed":true,"internalType":"bytes32","name":"adHash","type":"bytes32"},{"indexed":true,"internalType":"address","name":"tenant","type":"address"}],"name":"ApplicationSubmitted","type":"event"},{"anonymous":false,"inputs":[{"indexed":true,"internalType":"bytes32","name":"appId","type":"bytes32"},{"indexed":false,"internalType":"uint256","name":"slashedAmount","type":"uint256"},{"indexed":false,"internalType":"uint256","name":"refunded","type":"uint256"}],"name":"EscrowSlashed","type":"event"},{"anonymous":false,"inputs":[{"indexed":true,"internalType":"bytes32","name":"adHash","type":"bytes32"},{"indexed":true,"internalType":"address","name":"owner","type":"address"},{"indexed":false,"internalType":"bytes32","name":"policyId","type":"bytes32"}],"name":"ListingRegistered","type":"event"},{"anonymous":false,"inputs":[{"indexed":true,"internalType":"bytes32","name":"appId","type":"bytes32"},{"indexed":true,"internalType":"bytes32","name":"adHash","type":"bytes32"},{"indexed":true,"internalType":"address","name":"owner","type":"address"}],"name":"SettlementCompleted","type":"event"},{"inputs":[{"internalType":"uint256","name":"","type":"uint256"}],"name":"applicationIds","outputs":[{"internalType":"bytes32","name":"","type":"bytes32"}],"stateMutability":"view","type":"function"},{"inputs":[{"internalType":"bytes32","name":"","type":"bytes32"}],"name":"applications","outputs":[{"internalType":"address","name":"tenant","type":"address"},{"internalType":"bytes32","name":"adHash","type":"bytes32"},{"internalType":"uint256","name":"escrowAmount","type":"uint256"},{"internalType":"enum PPREV.AppStatus","name":"status","type":"uint8"},{"internalType":"uint256","name":"expiresAt","type":"uint256"}],"stateMutability":"view","type":"function"},{"inputs":[{"internalType":"bytes32","name":"adHash","type":"bytes32"},{"internalType":"bytes32","name":"nonce","type":"bytes32"},{"internalType":"uint256","name":"tAuth","type":"uint256"},{"internalType":"uint256[2]","name":"proof_a","type":"uint256[2]"},{"internalType":"uint256[2][2]","name":"proof_b","type":"uint256[2][2]"},{"internalType":"uint256[2]","name":"proof_c","type":"uint256[2]"},{"internalType":"uint256[]","name":"pubSignals","type":"uint256[]"}],"name":"applyForListing","outputs":[],"stateMutability":"payable","type":"function"},{"inputs":[],"name":"escrowTimeout","outputs":[{"internalType":"uint256","name":"","type":"uint256"}],"stateMutability":"view","type":"function"},{"inputs":[{"internalType":"bytes32","name":"appId","type":"bytes32"}],"name":"expireApplication","outputs":[],"stateMutability":"nonpayable","type":"function"},{"inputs":[],"name":"freshnessDelta","outputs":[{"internalType":"uint256","name":"","type":"uint256"}],"stateMutability":"view","type":"function"},{"inputs":[],"name":"getApplicationCount","outputs":[{"internalType":"uint256","name":"","type":"uint256"}],"stateMutability":"view","type":"function"},{"inputs":[{"internalType":"bytes32","name":"appId","type":"bytes32"}],"name":"getApplicationDetails","outputs":[{"internalType":"address","name":"tenant","type":"address"},{"internalType":"bytes32","name":"adHash","type":"bytes32"},{"internalType":"uint256","name":"escrowAmount","type":"uint256"},{"internalType":"enum PPREV.AppStatus","name":"status","type":"uint8"},{"internalType":"uint256","name":"expiresAt","type":"uint256"}],"stateMutability":"view","type":"function"},{"inputs":[],"name":"getListingCount","outputs":[{"internalType":"uint256","name":"","type":"uint256"}],"stateMutability":"view","type":"function"},{"inputs":[{"internalType":"bytes32","name":"adHash","type":"bytes32"}],"name":"getListingDetails","outputs":[{"internalType":"address","name":"listingOwner","type":"address"},{"internalType":"bytes32","name":"policyId","type":"bytes32"},{"internalType":"uint256","name":"reqEscrow","type":"uint256"},{"internalType":"enum PPREV.ListingStatus","name":"status","type":"uint8"}],"stateMutability":"view","type":"function"},{"inputs":[{"internalType":"uint256","name":"","type":"uint256"}],"name":"listingIds","outputs":[{"internalType":"bytes32","name":"","type":"bytes32"}],"stateMutability":"view","type":"function"},{"inputs":[{"internalType":"bytes32","name":"","type":"bytes32"}],"name":"listings","outputs":[{"internalType":"address","name":"owner","type":"address"},{"internalType":"bytes32","name":"adHash","type":"bytes32"},{"internalType":"bytes32","name":"policyId","type":"bytes32"},{"internalType":"uint256","name":"deposit","type":"uint256"},{"internalType":"uint256","name":"reqEscrow","type":"uint256"},{"internalType":"enum PPREV.ListingStatus","name":"status","type":"uint8"},{"internalType":"uint256","name":"createdAt","type":"uint256"}],"stateMutability":"view","type":"function"},{"inputs":[],"name":"minDeposit","outputs":[{"internalType":"uint256","name":"","type":"uint256"}],"stateMutability":"view","type":"function"},{"inputs":[],"name":"owner","outputs":[{"internalType":"address","name":"","type":"address"}],"stateMutability":"view","type":"function"},{"inputs":[{"internalType":"bytes32","name":"adHash","type":"bytes32"},{"internalType":"bytes32","name":"policyId","type":"bytes32"},{"internalType":"uint256","name":"reqEscrow","type":"uint256"},{"internalType":"bytes32","name":"nonce","type":"bytes32"},{"internalType":"uint256","name":"tAuth","type":"uint256"},{"internalType":"uint256[2]","name":"proof_a","type":"uint256[2]"},{"internalType":"uint256[2][2]","name":"proof_b","type":"uint256[2][2]"},{"internalType":"uint256[2]","name":"proof_c","type":"uint256[2]"},{"internalType":"uint256[]","name":"pubSignals","type":"uint256[]"}],"name":"registerListing","outputs":[],"stateMutability":"payable","type":"function"},{"inputs":[{"internalType":"bytes32","name":"appId","type":"bytes32"},{"internalType":"bytes32","name":"nonce","type":"bytes32"},{"internalType":"uint256","name":"tAuth","type":"uint256"},{"internalType":"uint256[2]","name":"proof_a","type":"uint256[2]"},{"internalType":"uint256[2][2]","name":"proof_b","type":"uint256[2][2]"},{"internalType":"uint256[2]","name":"proof_c","type":"uint256[2]"},{"internalType":"uint256[]","name":"pubSignals","type":"uint256[]"}],"name":"settleApplication","outputs":[],"stateMutability":"nonpayable","type":"function"},{"inputs":[],"name":"slashPercent","outputs":[{"internalType":"uint256","name":"","type":"uint256"}],"stateMutability":"view","type":"function"},{"inputs":[{"internalType":"uint256","name":"_timeout","type":"uint256"}],"name":"updateEscrowTimeout","outputs":[],"stateMutability":"nonpayable","type":"function"},{"inputs":[{"internalType":"uint256","name":"_delta","type":"uint256"}],"name":"updateFreshnessDelta","outputs":[],"stateMutability":"nonpayable","type":"function"},{"inputs":[{"internalType":"uint256","name":"_min","type":"uint256"}],"name":"updateMinDeposit","outputs":[],"stateMutability":"nonpayable","type":"function"},{"inputs":[{"internalType":"bytes32","name":"","type":"bytes32"}],"name":"usedNonces","outputs":[{"internalType":"bool","name":"","type":"bool"}],"stateMutability":"view","type":"function"},{"inputs":[],"name":"zkVerifier","outputs":[{"internalType":"contract IGroth16Verifier","name":"","type":"address"}],"stateMutability":"view","type":"function"}],"evm":{"bytecode":{"linkReferences":{},"object":"60803461009757601f61146038819003918201601f19168301916001600160401b0383118484101761009c5780849260209460405283398101031261009757516001600160a01b038116908190036100975761070860025562093a8060035566038d7ea4c68000600455600a60055560018060a01b03193381600054161760005560015416176001556040516113ad90816100b38239f35b600080fd5b634e487b7160e01b600052604160045260246000fdfe608080604052600436101561001357600080fd5b60003560e01c90816318e80d2e14610d485750806322a4c76814610d2a57806341b3d18514610d0c5780634cafa1211461014757806352bea36014610cbb57806358a6f4ca14610c9d578063605c6d6314610c7f5780636343b15f14610c6157806368e8ba69146109de5780637b3565611461097d57806387ed92d71461095f5780638da5cb5b146109365780639a7be47114610908578063b30c62e1146108b7578063ba247f801461050c578063c18b8db41461048c578063d6df096d14610463578063e6c18d3414610435578063e84a571c14610407578063efe4bb691461019f578063f0dc3db0146101475763feb617241461011157600080fd5b34610142576020366003190112610142576004356000526008602052602060ff604060002054166040519015158152f35b600080fd5b34610142576020366003190112610142576004356000526007602052604060002060018060a01b0381541661019b600183015492600281015490600460ff6003830154169101549160405195869586611128565b0390f35b3461014257602080600319360112610142576004359081600052600781526040600020906001820190815460005260068152604060002091600384019283549360ff851660048110156103f1576001036103be576004860154421115610387576002860154956005548088029088820414881517156103715760646102269104809861116a565b958692600260ff198093161790556001600585019182541617905581610312575b5050846102aa575b50917f711fc573a5d838be7424b56fc64bc507ea1a01f9aa87710ea0c3135823b0dfb493916040935492845193877fdcddb7997ee5c16a762af6c6201ee61fe6156ebd42f81e0b26514041879529f8600080a38352820152a2005b5460009081908190819088906001600160a01b03165af16102c96112f6565b50156102d5578561024f565b60405162461bcd60e51b815260048101839052601560248201527414db185cda081d1c985b9cd9995c8819985a5b1959605a1b6044820152606490fd5b546000918291829182916001600160a01b03165af161032f6112f6565b501561033c578387610247565b60405162461bcd60e51b815260048101849052600d60248201526c1499599d5b990819985a5b1959609a1b6044820152606490fd5b634e487b7160e01b600052601160045260246000fd5b60405162461bcd60e51b815260048101859052600f60248201526e139bdd081e595d08195e1c1a5c9959608a1b6044820152606490fd5b60405162461bcd60e51b815260048101859052600b60248201526a4e6f742070656e64696e6760a81b6044820152606490fd5b634e487b7160e01b600052602160045260246000fd5b346101425760203660031901126101425761042d60018060a01b03600054163314611336565b600435600355005b346101425760203660031901126101425761045b60018060a01b03600054163314611336565b600435600255005b34610142576000366003190112610142576001546040516001600160a01b039091168152602090f35b3461014257602036600319011261014257600435600052600660205260e0604060002060018060a01b038154169061050560018201549160028101546003820154600483015491600660ff60058601541694015495604051978852602088015260408701526060860152608085015260a084019061115d565b60c0820152f35b6101c036600319011261014257600435602490813591606435903660e4116101425761016490368211610142576101a4368111610142573567ffffffffffffffff9081811161014257610563903690600401611097565b9094866000526020956006875260ff6005604060002001541660058110156107c65761087a57600454341061083f5761059e6084354261116a565b906105af6002926002541015611177565b82600052600888526105c960ff60406000205416156111b3565b60018054604080516361971b8760e11b815292996001600160a01b0397939592881692909160a46004880137600060e48c604489015b84841061082957505050505060409060c48601376101206101048501526101248401829052610144926001600160fb1b038311610142578a9385809492819360051b80918484013781010301915afa801561081d57610666916000916107f0575b5061129d565b60005260088552604060002060ff199085828254161790556040519260e0840190848210908211176107db576040523383528583019087825260408401898152606085013481526080860191604435835260a087019489865260c08801964288528c60005260068c5260406000209851166bffffffffffffffffffffffff60a01b89541617885551898801555160028701555160038601555160048501556005840191519060058210156107c6579060ff839260069594541691161790555191015560095491600160401b8310156107b15782018060095582101561079d575090827fde1a0a8f69e2e443b182732a7fc398b200d305224729601300dc1be13185d60d9260096000527f6e1540171b6c0c960b71a7020d9f60077f6af931a8bbf590da0223dacf75c7af01556040519384523393a3005b634e487b7160e01b60009081526032600452fd5b50634e487b7160e01b60009081526041600452fd5b85634e487b7160e01b60005260216004526000fd5b84634e487b7160e01b60005260416004526000fd5b6108109150883d8a11610816575b61080881836111f4565b810190611216565b8a610660565b503d6107fe565b6040513d6000823e3d90fd5b6040818185819437019201920191908d906105ff565b60405162461bcd60e51b81526004810188905260148187015273125b9cdd59999a58da595b9d0819195c1bdcda5d60621b6044820152606490fd5b60405162461bcd60e51b815260048101889052601681870152754c697374696e6720616c72656164792065786973747360501b6044820152606490fd5b3461014257602036600319011261014257600435600a5481101561014257602090600a6000527fc65a7bb8d6351c1cf70c95a316cc6a92839c986682d98bc35f958f4883f9d2a80154604051908152f35b346101425760203660031901126101425761092e60018060a01b03600054163314611336565b600480359055005b34610142576000366003190112610142576000546040516001600160a01b039091168152602090f35b34610142576000366003190112610142576020600954604051908152f35b34610142576020366003190112610142576004356000526006602052608060406000206109dc60018060a01b038254169160028101549060ff60056004830154920154169160405194855260208501526040840152606083019061115d565bf35b34610142576109ec366110c8565b87600097959796939294965260076020526040600020956001870154600052600660205260406000209760018060a01b038954163303610c285760ff60038901541660048110156103f157600103610bee5760048801544211610bb857610a62610a586020964261116a565b6002541015611177565b8660005260088552610a7c60ff60406000205416156111b3565b610aa860018060a01b036001541693604051978896879586956361971b8760e11b87526004870161122e565b03915afa801561081d57610ac391600091610b99575061129d565b6000526008602052604060002060ff19906001828254161790556003818184015416176003830155600360058401918254161790556000808080610b1060028601546003880154906112e9565b86546001600160a01b03165af1610b256112f6565b5015610b62576001015490546001600160a01b0316917f529fa1829da1524d0551f6b102cb25292f3b2db723dc17b55fe07044d76b2072600080a4005b60405162461bcd60e51b815260206004820152600f60248201526e151c985b9cd9995c8819985a5b1959608a1b6044820152606490fd5b610bb2915060203d6020116108165761080881836111f4565b86610660565b60405162461bcd60e51b815260206004820152600e60248201526d115cd8dc9bddc8195e1c1a5c995960921b6044820152606490fd5b60405162461bcd60e51b8152602060048201526012602482015271496e76616c6964206170702073746174757360701b6044820152606490fd5b60405162461bcd60e51b81526020600482015260116024820152702737ba103634b9ba34b7339037bbb732b960791b6044820152606490fd5b34610142576000366003190112610142576020600554604051908152f35b34610142576000366003190112610142576020600354604051908152f35b34610142576000366003190112610142576020600a54604051908152f35b34610142576020366003190112610142576004356009548110156101425760209060096000527f6e1540171b6c0c960b71a7020d9f60077f6af931a8bbf590da0223dacf75c7af0154604051908152f35b34610142576000366003190112610142576020600454604051908152f35b34610142576000366003190112610142576020600254604051908152f35b610d51366110c8565b9092979487600097959752600660205260406000209560ff60058801541660058110156103f15760010361106057506004860154341061102557610a58610d98914261116a565b836000526008602052610db360ff60406000205416156111b3565b60405197602089018881523360601b60408b01528560548b015260548a5289608081011067ffffffffffffffff60808c011117610fb15760808a01604052895190209889600052600760205260ff6003604060002001541660048110156103f157610fe65750906020929160018060a01b0397610e4c896001541693604051978896879586956361971b8760e11b87526004870161122e565b03915afa801561081d57610e6791600091610fc7575061129d565b600052600860205260406000209060ff19916001838254161790556005600283828401541617910155610e9c600354426112e9565b6040519260a0840184811067ffffffffffffffff821117610fb1576040523384526020840185815260408501903482526060860192600184526080870194855288600052600760205260406000209651166bffffffffffffffffffffffff60a01b87541617865551600186015551600285015560038401905160048110156103f15760ff600494835416911617905551910155600a54600160401b811015610fb1576001810180600a55811015610f9b5782907fc65a7bb8d6351c1cf70c95a316cc6a92839c986682d98bc35f958f4883f9d2a8015533917fa1e59e5998de8156750dd856247d14c1222f3a198cc2d74eeef50113c8686d5a600080a4005b634e487b7160e01b600052603260045260246000fd5b634e487b7160e01b600052604160045260246000fd5b610fe0915060203d6020116108165761080881836111f4565b87610660565b608060649162461bcd60e51b8282015260206084820152601560a482015274223ab83634b1b0ba329030b8383634b1b0ba34b7b760591b60c482015201fd5b60405162461bcd60e51b8152602060048201526013602482015272496e73756666696369656e7420657363726f7760681b6044820152606490fd5b62461bcd60e51b81526020600482015260126024820152714c697374696e67206e6f742061637469766560701b6044820152606490fd5b9181601f840112156101425782359167ffffffffffffffff8311610142576020808501948460051b01011161014257565b90610180600319830112610142576004359160243591604435918060a41161014257606491610124908282116101425760a492610164928184116101425792359067ffffffffffffffff82116101425761112491600401611097565b9091565b9195949392909560a083019660018060a01b031683526020830152604082015260048210156103f15760809160608201520152565b9060058210156103f15752565b9190820391821161037157565b1561117e57565b60405162461bcd60e51b815260206004820152600d60248201526c141c9bdbd9881d1bdbc81bdb19609a1b6044820152606490fd5b156111ba57565b60405162461bcd60e51b8152602060048201526012602482015271139bdb98d948185b1c9958591e481d5cd95960721b6044820152606490fd5b90601f8019910116810190811067ffffffffffffffff821117610fb157604052565b90816020910312610142575180151581036101425790565b92908592916101209260408093873760008684015b6002821061127e5750505060c08501376101008301819052820152610140926001600160fb1b0381116101425760051b809284830137010190565b8480969750818185600195969798943701930191018895949392611243565b156112a457565b60405162461bcd60e51b815260206004820152601c60248201527f5a4b2070726f6f6620766572696669636174696f6e206661696c6564000000006044820152606490fd5b9190820180921161037157565b3d15611331573d9067ffffffffffffffff8211610fb15760405191611325601f8201601f1916602001846111f4565b82523d6000602084013e565b606090565b1561133d57565b60405162461bcd60e51b81526020600482015260126024820152712737ba1031b7b73a3930b1ba1037bbb732b960711b6044820152606490fdfea2646970667358221220c752e0eef9daa835c4170774e08be382b69e8d95193ec11a97d9f4689b5f74e364736f6c63430008180033","opcodes":"PUSH1 0x80 CALLVALUE PUSH2 0x97 JUMPI PUSH1 0x1F PUSH2 0x1460 CODESIZE DUP2 SWAP1 SUB SWAP2 DUP3 ADD PUSH1 0x1F NOT AND DUP4 ADD SWAP2 PUSH1 0x1 PUSH1 0x1 PUSH1 0x40 SHL SUB DUP4 GT DUP5 DUP5 LT OR PUSH2 0x9C JUMPI DUP1 DUP5 SWAP3 PUSH1 0x20 SWAP5 PUSH1 0x40 MSTORE DUP4 CODECOPY DUP2 ADD SUB SLT PUSH2 0x97 JUMPI MLOAD PUSH1 0x1 PUSH1 0x1 PUSH1 0xA0 SHL SUB DUP2 AND SWAP1 DUP2 SWAP1 SUB PUSH2 0x97 JUMPI PUSH2 0x708 PUSH1 0x2 SSTORE PUSH3 0x93A80 PUSH1 0x3 SSTORE PUSH7 0x38D7EA4C68000 PUSH1 0x4 SSTORE PUSH1 0xA PUSH1 0x5 SSTORE PUSH1 0x1 DUP1 PUSH1 0xA0 SHL SUB NOT CALLER DUP2 PUSH1 0x0 SLOAD AND OR PUSH1 0x0 SSTORE PUSH1 0x1 SLOAD AND OR PUSH1 0x1 SSTORE PUSH1 0x40 MLOAD PUSH2 0x13AD SWAP1 DUP2 PUSH2 0xB3 DUP3 CODECOPY RETURN JUMPDEST PUSH1 0x0 DUP1 REVERT JUMPDEST PUSH4 0x4E487B71 PUSH1 0xE0 SHL PUSH1 0x0 MSTORE PUSH1 0x41 PUSH1 0x4 MSTORE PUSH1 0x24 PUSH1 0x0 REVERT INVALID PUSH1 0x80 DUP1 PUSH1 0x40 MSTORE PUSH1 0x4 CALLDATASIZE LT ISZERO PUSH2 0x13 JUMPI PUSH1 0x0 DUP1 REVERT JUMPDEST PUSH1 0x0 CALLDATALOAD PUSH1 0xE0 SHR SWAP1 DUP2 PUSH4 0x18E80D2E EQ PUSH2 0xD48 JUMPI POP DUP1 PUSH4 0x22A4C768 EQ PUSH2 0xD2A JUMPI DUP1 PUSH4 0x41B3D185 EQ PUSH2 0xD0C JUMPI DUP1 PUSH4 0x4CAFA121 EQ PUSH2 0x147 JUMPI DUP1 PUSH4 0x52BEA360 EQ PUSH2 0xCBB JUMPI DUP1 PUSH4 0x58A6F4CA EQ PUSH2 0xC9D JUMPI DUP1 PUSH4 0x605C6D63 EQ PUSH2 0xC7F JUMPI DUP1 PUSH4 0x6343B15F EQ PUSH2 0xC61 JUMPI DUP1 PUSH4 0x68E8BA69 EQ PUSH2 0x9DE JUMPI DUP1 PUSH4 0x7B356561 EQ PUSH2 0x97D JUMPI DUP1 PUSH4 0x87ED92D7 EQ PUSH2 0x95F JUMPI DUP1 PUSH4 0x8DA5CB5B EQ PUSH2 0x936 JUMPI DUP1 PUSH4 0x9A7BE471 EQ PUSH2 0x908 JUMPI DUP1 PUSH4 0xB30C62E1 EQ PUSH2 0x8B7 JUMPI DUP1 PUSH4 0xBA247F80 EQ PUSH2 0x50C JUMPI DUP1 PUSH4 0xC18B8DB4 EQ PUSH2 0x48C JUMPI DUP1 PUSH4 0xD6DF096D EQ PUSH2 0x463 JUMPI DUP1 PUSH4 0xE6C18D34 EQ PUSH2 0x435 JUMPI DUP1 PUSH4 0xE84A571C EQ PUSH2 0x407 JUMPI DUP1 PUSH4 0xEFE4BB69 EQ PUSH2 0x19F JUMPI DUP1 PUSH4 0xF0DC3DB0 EQ PUSH2 0x147 JUMPI PUSH4 0xFEB61724 EQ PUSH2 0x111 JUMPI PUSH1 0x0 DUP1 REVERT JUMPDEST CALLVALUE PUSH2 0x142 JUMPI PUSH1 0x20 CALLDATASIZE PUSH1 0x3 NOT ADD SLT PUSH2 0x142 JUMPI PUSH1 0x4 CALLDATALOAD PUSH1 0x0 MSTORE PUSH1 0x8 PUSH1 0x20 MSTORE PUSH1 0x20 PUSH1 0xFF PUSH1 0x40 PUSH1 0x0 KECCAK256 SLOAD AND PUSH1 0x40 MLOAD SWAP1 ISZERO ISZERO DUP2 MSTORE RETURN JUMPDEST PUSH1 0x0 DUP1 REVERT JUMPDEST CALLVALUE PUSH2 0x142 JUMPI PUSH1 0x20 CALLDATASIZE PUSH1 0x3 NOT ADD SLT PUSH2 0x142 JUMPI PUSH1 0x4 CALLDATALOAD PUSH1 0x0 MSTORE PUSH1 0x7 PUSH1 0x20 MSTORE PUSH1 0x40 PUSH1 0x0 KECCAK256 PUSH1 0x1 DUP1 PUSH1 0xA0 SHL SUB DUP2 SLOAD AND PUSH2 0x19B PUSH1 0x1 DUP4 ADD SLOAD SWAP3 PUSH1 0x2 DUP2 ADD SLOAD SWAP1 PUSH1 0x4 PUSH1 0xFF PUSH1 0x3 DUP4 ADD SLOAD AND SWAP2 ADD SLOAD SWAP2 PUSH1 0x40 MLOAD SWAP6 DUP7 SWAP6 DUP7 PUSH2 0x1128 JUMP JUMPDEST SUB SWAP1 RETURN JUMPDEST CALLVALUE PUSH2 0x142 JUMPI PUSH1 0x20 DUP1 PUSH1 0x3 NOT CALLDATASIZE ADD SLT PUSH2 0x142 JUMPI PUSH1 0x4 CALLDATALOAD SWAP1 DUP2 PUSH1 0x0 MSTORE PUSH1 0x7 DUP2 MSTORE PUSH1 0x40 PUSH1 0x0 KECCAK256 SWAP1 PUSH1 0x1 DUP3 ADD SWAP1 DUP2 SLOAD PUSH1 0x0 MSTORE PUSH1 0x6 DUP2 MSTORE PUSH1 0x40 PUSH1 0x0 KECCAK256 SWAP2 PUSH1 0x3 DUP5 ADD SWAP3 DUP4 SLOAD SWAP4 PUSH1 0xFF DUP6 AND PUSH1 0x4 DUP2 LT ISZERO PUSH2 0x3F1 JUMPI PUSH1 0x1 SUB PUSH2 0x3BE JUMPI PUSH1 0x4 DUP7 ADD SLOAD TIMESTAMP GT ISZERO PUSH2 0x387 JUMPI PUSH1 0x2 DUP7 ADD SLOAD SWAP6 PUSH1 0x5 SLOAD DUP1 DUP9 MUL SWAP1 DUP9 DUP3 DIV EQ DUP9 ISZERO OR ISZERO PUSH2 0x371 JUMPI PUSH1 0x64 PUSH2 0x226 SWAP2 DIV DUP1 SWAP9 PUSH2 0x116A JUMP JUMPDEST SWAP6 DUP7 SWAP3 PUSH1 0x2 PUSH1 0xFF NOT DUP1 SWAP4 AND OR SWAP1 SSTORE PUSH1 0x1 PUSH1 0x5 DUP6 ADD SWAP2 DUP3 SLOAD AND OR SWAP1 SSTORE DUP2 PUSH2 0x312 JUMPI JUMPDEST POP POP DUP5 PUSH2 0x2AA JUMPI JUMPDEST POP SWAP2 PUSH32 0x711FC573A5D838BE7424B56FC64BC507EA1A01F9AA87710EA0C3135823B0DFB4 SWAP4 SWAP2 PUSH1 0x40 SWAP4 SLOAD SWAP3 DUP5 MLOAD SWAP4 DUP8 PUSH32 0xDCDDB7997EE5C16A762AF6C6201EE61FE6156EBD42F81E0B26514041879529F8 PUSH1 0x0 DUP1 LOG3 DUP4 MSTORE DUP3 ADD MSTORE LOG2 STOP JUMPDEST SLOAD PUSH1 0x0 SWAP1 DUP2 SWAP1 DUP2 SWAP1 DUP2 SWAP1 DUP9 SWAP1 PUSH1 0x1 PUSH1 0x1 PUSH1 0xA0 SHL SUB AND GAS CALL PUSH2 0x2C9 PUSH2 0x12F6 JUMP JUMPDEST POP ISZERO PUSH2 0x2D5 JUMPI DUP6 PUSH2 0x24F JUMP JUMPDEST PUSH1 0x40 MLOAD PUSH3 0x461BCD PUSH1 0xE5 SHL DUP2 MSTORE PUSH1 0x4 DUP2 ADD DUP4 SWAP1 MSTORE PUSH1 0x15 PUSH1 0x24 DUP3 ADD MSTORE PUSH21 0x14DB185CDA081D1C985B9CD9995C8819985A5B1959 PUSH1 0x5A SHL PUSH1 0x44 DUP3 ADD MSTORE PUSH1 0x64 SWAP1 REVERT JUMPDEST SLOAD PUSH1 0x0 SWAP2 DUP3 SWAP2 DUP3 SWAP2 DUP3 SWAP2 PUSH1 0x1 PUSH1 0x1 PUSH1 0xA0 SHL SUB AND GAS CALL PUSH2 0x32F PUSH2 0x12F6 JUMP JUMPDEST POP ISZERO PUSH2 0x33C JUMPI DUP4 DUP8 PUSH2 0x247 JUMP JUMPDEST PUSH1 0x40 MLOAD PUSH3 0x461BCD PUSH1 0xE5 SHL DUP2 MSTORE PUSH1 0x4 DUP2 ADD DUP5 SWAP1 MSTORE PUSH1 0xD PUSH1 0x24 DUP3 ADD MSTORE PUSH13 0x1499599D5B990819985A5B1959 PUSH1 0x9A SHL PUSH1 0x44 DUP3 ADD MSTORE PUSH1 0x64 SWAP1 REVERT JUMPDEST PUSH4 0x4E487B71 PUSH1 0xE0 SHL PUSH1 0x0 MSTORE PUSH1 0x11 PUSH1 0x4 MSTORE PUSH1 0x24 PUSH1 0x0 REVERT JUMPDEST PUSH1 0x40 MLOAD PUSH3 0x461BCD PUSH1 0xE5 SHL DUP2 MSTORE PUSH1 0x4 DUP2 ADD DUP6 SWAP1 MSTORE PUSH1 0xF PUSH1 0x24 DUP3 ADD MSTORE PUSH15 0x139BDD081E595D08195E1C1A5C9959 PUSH1 0x8A SHL PUSH1 0x44 DUP3 ADD MSTORE PUSH1 0x64 SWAP1 REVERT JUMPDEST PUSH1 0x40 MLOAD PUSH3 0x461BCD PUSH1 0xE5 SHL DUP2 MSTORE PUSH1 0x4 DUP2 ADD DUP6 SWAP1 MSTORE PUSH1 0xB PUSH1 0x24 DUP3 ADD MSTORE PUSH11 0x4E6F742070656E64696E67 PUSH1 0xA8 SHL PUSH1 0x44 DUP3 ADD MSTORE PUSH1 0x64 SWAP1 REVERT JUMPDEST PUSH4 0x4E487B71 PUSH1 0xE0 SHL PUSH1 0x0 MSTORE PUSH1 0x21 PUSH1 0x4 MSTORE PUSH1 0x24 PUSH1 0x0 REVERT JUMPDEST CALLVALUE PUSH2 0x142 JUMPI PUSH1 0x20 CALLDATASIZE PUSH1 0x3 NOT ADD SLT PUSH2 0x142 JUMPI PUSH2 0x42D PUSH1 0x1 DUP1 PUSH1 0xA0 SHL SUB PUSH1 0x0 SLOAD AND CALLER EQ PUSH2 0x1336 JUMP JUMPDEST PUSH1 0x4 CALLDATALOAD PUSH1 0x3 SSTORE STOP JUMPDEST CALLVALUE PUSH2 0x142 JUMPI PUSH1 0x20 CALLDATASIZE PUSH1 0x3 NOT ADD SLT PUSH2 0x142 JUMPI PUSH2 0x45B PUSH1 0x1 DUP1 PUSH1 0xA0 SHL SUB PUSH1 0x0 SLOAD AND CALLER EQ PUSH2 0x1336 JUMP JUMPDEST PUSH1 0x4 CALLDATALOAD PUSH1 0x2 SSTORE STOP JUMPDEST CALLVALUE PUSH2 0x142 JUMPI PUSH1 0x0 CALLDATASIZE PUSH1 0x3 NOT ADD SLT PUSH2 0x142 JUMPI PUSH1 0x1 SLOAD PUSH1 0x40 MLOAD PUSH1 0x1 PUSH1 0x1 PUSH1 0xA0 SHL SUB SWAP1 SWAP2 AND DUP2 MSTORE PUSH1 0x20 SWAP1 RETURN JUMPDEST CALLVALUE PUSH2 0x142 JUMPI PUSH1 0x20 CALLDATASIZE PUSH1 0x3 NOT ADD SLT PUSH2 0x142 JUMPI PUSH1 0x4 CALLDATALOAD PUSH1 0x0 MSTORE PUSH1 0x6 PUSH1 0x20 MSTORE PUSH1 0xE0 PUSH1 0x40 PUSH1 0x0 KECCAK256 PUSH1 0x1 DUP1 PUSH1 0xA0 SHL SUB DUP2 SLOAD AND SWAP1 PUSH2 0x505 PUSH1 0x1 DUP3 ADD SLOAD SWAP2 PUSH1 0x2 DUP2 ADD SLOAD PUSH1 0x3 DUP3 ADD SLOAD PUSH1 0x4 DUP4 ADD SLOAD SWAP2 PUSH1 0x6 PUSH1 0xFF PUSH1 0x5 DUP7 ADD SLOAD AND SWAP5 ADD SLOAD SWAP6 PUSH1 0x40 MLOAD SWAP8 DUP9 MSTORE PUSH1 0x20 DUP9 ADD MSTORE PUSH1 0x40 DUP8 ADD MSTORE PUSH1 0x60 DUP7 ADD MSTORE PUSH1 0x80 DUP6 ADD MSTORE PUSH1 0xA0 DUP5 ADD SWAP1 PUSH2 0x115D JUMP JUMPDEST PUSH1 0xC0 DUP3 ADD MSTORE RETURN JUMPDEST PUSH2 0x1C0 CALLDATASIZE PUSH1 0x3 NOT ADD SLT PUSH2 0x142 JUMPI PUSH1 0x4 CALLDATALOAD PUSH1 0x24 SWAP1 DUP2 CALLDATALOAD SWAP2 PUSH1 0x64 CALLDATALOAD SWAP1 CALLDATASIZE PUSH1 0xE4 GT PUSH2 0x142 JUMPI PUSH2 0x164 SWAP1 CALLDATASIZE DUP3 GT PUSH2 0x142 JUMPI PUSH2 0x1A4 CALLDATASIZE DUP2 GT PUSH2 0x142 JUMPI CALLDATALOAD PUSH8 0xFFFFFFFFFFFFFFFF SWAP1 DUP2 DUP2 GT PUSH2 0x142 JUMPI PUSH2 0x563 SWAP1 CALLDATASIZE SWAP1 PUSH1 0x4 ADD PUSH2 0x1097 JUMP JUMPDEST SWAP1 SWAP5 DUP7 PUSH1 0x0 MSTORE PUSH1 0x20 SWAP6 PUSH1 0x6 DUP8 MSTORE PUSH1 0xFF PUSH1 0x5 PUSH1 0x40 PUSH1 0x0 KECCAK256 ADD SLOAD AND PUSH1 0x5 DUP2 LT ISZERO PUSH2 0x7C6 JUMPI PUSH2 0x87A JUMPI PUSH1 0x4 SLOAD CALLVALUE LT PUSH2 0x83F JUMPI PUSH2 0x59E PUSH1 0x84 CALLDATALOAD TIMESTAMP PUSH2 0x116A JUMP JUMPDEST SWAP1 PUSH2 0x5AF PUSH1 0x2 SWAP3 PUSH1 0x2 SLOAD LT ISZERO PUSH2 0x1177 JUMP JUMPDEST DUP3 PUSH1 0x0 MSTORE PUSH1 0x8 DUP9 MSTORE PUSH2 0x5C9 PUSH1 0xFF PUSH1 0x40 PUSH1 0x0 KECCAK256 SLOAD AND ISZERO PUSH2 0x11B3 JUMP JUMPDEST PUSH1 0x1 DUP1 SLOAD PUSH1 0x40 DUP1 MLOAD PUSH4 0x61971B87 PUSH1 0xE1 SHL DUP2 MSTORE SWAP3 SWAP10 PUSH1 0x1 PUSH1 0x1 PUSH1 0xA0 SHL SUB SWAP8 SWAP4 SWAP6 SWAP3 DUP9 AND SWAP3 SWAP1 SWAP2 PUSH1 0xA4 PUSH1 0x4 DUP9 ADD CALLDATACOPY PUSH1 0x0 PUSH1 0xE4 DUP13 PUSH1 0x44 DUP10 ADD JUMPDEST DUP5 DUP5 LT PUSH2 0x829 JUMPI POP POP POP POP POP PUSH1 0x40 SWAP1 PUSH1 0xC4 DUP7 ADD CALLDATACOPY PUSH2 0x120 PUSH2 0x104 DUP6 ADD MSTORE PUSH2 0x124 DUP5 ADD DUP3 SWAP1 MSTORE PUSH2 0x144 SWAP3 PUSH1 0x1 PUSH1 0x1 PUSH1 0xFB SHL SUB DUP4 GT PUSH2 0x142 JUMPI DUP11 SWAP4 DUP6 DUP1 SWAP5 SWAP3 DUP2 SWAP4 PUSH1 0x5 SHL DUP1 SWAP2 DUP5 DUP5 ADD CALLDATACOPY DUP2 ADD SUB ADD SWAP2 GAS STATICCALL DUP1 ISZERO PUSH2 0x81D JUMPI PUSH2 0x666 SWAP2 PUSH1 0x0 SWAP2 PUSH2 0x7F0 JUMPI JUMPDEST POP PUSH2 0x129D JUMP JUMPDEST PUSH1 0x0 MSTORE PUSH1 0x8 DUP6 MSTORE PUSH1 0x40 PUSH1 0x0 KECCAK256 PUSH1 0xFF NOT SWAP1 DUP6 DUP3 DUP3 SLOAD AND OR SWAP1 SSTORE PUSH1 0x40 MLOAD SWAP3 PUSH1 0xE0 DUP5 ADD SWAP1 DUP5 DUP3 LT SWAP1 DUP3 GT OR PUSH2 0x7DB JUMPI PUSH1 0x40 MSTORE CALLER DUP4 MSTORE DUP6 DUP4 ADD SWAP1 DUP8 DUP3 MSTORE PUSH1 0x40 DUP5 ADD DUP10 DUP2 MSTORE PUSH1 0x60 DUP6 ADD CALLVALUE DUP2 MSTORE PUSH1 0x80 DUP7 ADD SWAP2 PUSH1 0x44 CALLDATALOAD DUP4 MSTORE PUSH1 0xA0 DUP8 ADD SWAP5 DUP10 DUP7 MSTORE PUSH1 0xC0 DUP9 ADD SWAP7 TIMESTAMP DUP9 MSTORE DUP13 PUSH1 0x0 MSTORE PUSH1 0x6 DUP13 MSTORE PUSH1 0x40 PUSH1 0x0 KECCAK256 SWAP9 MLOAD AND PUSH12 0xFFFFFFFFFFFFFFFFFFFFFFFF PUSH1 0xA0 SHL DUP10 SLOAD AND OR DUP9 SSTORE MLOAD DUP10 DUP9 ADD SSTORE MLOAD PUSH1 0x2 DUP8 ADD SSTORE MLOAD PUSH1 0x3 DUP7 ADD SSTORE MLOAD PUSH1 0x4 DUP6 ADD SSTORE PUSH1 0x5 DUP5 ADD SWAP2 MLOAD SWAP1 PUSH1 0x5 DUP3 LT ISZERO PUSH2 0x7C6 JUMPI SWAP1 PUSH1 0xFF DUP4 SWAP3 PUSH1 0x6 SWAP6 SWAP5 SLOAD AND SWAP2 AND OR SWAP1 SSTORE MLOAD SWAP2 ADD SSTORE PUSH1 0x9 SLOAD SWAP2 PUSH1 0x1 PUSH1 0x40 SHL DUP4 LT ISZERO PUSH2 0x7B1 JUMPI DUP3 ADD DUP1 PUSH1 0x9 SSTORE DUP3 LT ISZERO PUSH2 0x79D JUMPI POP SWAP1 DUP3 PUSH32 0xDE1A0A8F69E2E443B182732A7FC398B200D305224729601300DC1BE13185D60D SWAP3 PUSH1 0x9 PUSH1 0x0 MSTORE PUSH32 0x6E1540171B6C0C960B71A7020D9F60077F6AF931A8BBF590DA0223DACF75C7AF ADD SSTORE PUSH1 0x40 MLOAD SWAP4 DUP5 MSTORE CALLER SWAP4 LOG3 STOP JUMPDEST PUSH4 0x4E487B71 PUSH1 0xE0 SHL PUSH1 0x0 SWAP1 DUP2 MSTORE PUSH1 0x32 PUSH1 0x4 MSTORE REVERT JUMPDEST POP PUSH4 0x4E487B71 PUSH1 0xE0 SHL PUSH1 0x0 SWAP1 DUP2 MSTORE PUSH1 0x41 PUSH1 0x4 MSTORE REVERT JUMPDEST DUP6 PUSH4 0x4E487B71 PUSH1 0xE0 SHL PUSH1 0x0 MSTORE PUSH1 0x21 PUSH1 0x4 MSTORE PUSH1 0x0 REVERT JUMPDEST DUP5 PUSH4 0x4E487B71 PUSH1 0xE0 SHL PUSH1 0x0 MSTORE PUSH1 0x41 PUSH1 0x4 MSTORE PUSH1 0x0 REVERT JUMPDEST PUSH2 0x810 SWAP2 POP DUP9 RETURNDATASIZE DUP11 GT PUSH2 0x816 JUMPI JUMPDEST PUSH2 0x808 DUP2 DUP4 PUSH2 0x11F4 JUMP JUMPDEST DUP2 ADD SWAP1 PUSH2 0x1216 JUMP JUMPDEST DUP11 PUSH2 0x660 JUMP JUMPDEST POP RETURNDATASIZE PUSH2 0x7FE JUMP JUMPDEST PUSH1 0x40 MLOAD RETURNDATASIZE PUSH1 0x0 DUP3 RETURNDATACOPY RETURNDATASIZE SWAP1 REVERT JUMPDEST PUSH1 0x40 DUP2 DUP2 DUP6 DUP2 SWAP5 CALLDATACOPY ADD SWAP3 ADD SWAP3 ADD SWAP2 SWAP1 DUP14 SWAP1 PUSH2 0x5FF JUMP JUMPDEST PUSH1 0x40 MLOAD PUSH3 0x461BCD PUSH1 0xE5 SHL DUP2 MSTORE PUSH1 0x4 DUP2 ADD DUP9 SWAP1 MSTORE PUSH1 0x14 DUP2 DUP8 ADD MSTORE PUSH20 0x125B9CDD59999A58DA595B9D0819195C1BDCDA5D PUSH1 0x62 SHL PUSH1 0x44 DUP3 ADD MSTORE PUSH1 0x64 SWAP1 REVERT JUMPDEST PUSH1 0x40 MLOAD PUSH3 0x461BCD PUSH1 0xE5 SHL DUP2 MSTORE PUSH1 0x4 DUP2 ADD DUP9 SWAP1 MSTORE PUSH1 0x16 DUP2 DUP8 ADD MSTORE PUSH22 0x4C697374696E6720616C726561647920657869737473 PUSH1 0x50 SHL PUSH1 0x44 DUP3 ADD MSTORE PUSH1 0x64 SWAP1 REVERT JUMPDEST CALLVALUE PUSH2 0x142 JUMPI PUSH1 0x20 CALLDATASIZE PUSH1 0x3 NOT ADD SLT PUSH2 0x142 JUMPI PUSH1 0x4 CALLDATALOAD PUSH1 0xA SLOAD DUP2 LT ISZERO PUSH2 0x142 JUMPI PUSH1 0x20 SWAP1 PUSH1 0xA PUSH1 0x0 MSTORE PUSH32 0xC65A7BB8D6351C1CF70C95A316CC6A92839C986682D98BC35F958F4883F9D2A8 ADD SLOAD PUSH1 0x40 MLOAD SWAP1 DUP2 MSTORE RETURN JUMPDEST CALLVALUE PUSH2 0x142 JUMPI PUSH1 0x20 CALLDATASIZE PUSH1 0x3 NOT ADD SLT PUSH2 0x142 JUMPI PUSH2 0x92E PUSH1 0x1 DUP1 PUSH1 0xA0 SHL SUB PUSH1 0x0 SLOAD AND CALLER EQ PUSH2 0x1336 JUMP JUMPDEST PUSH1 0x4 DUP1 CALLDATALOAD SWAP1 SSTORE STOP JUMPDEST CALLVALUE PUSH2 0x142 JUMPI PUSH1 0x0 CALLDATASIZE PUSH1 0x3 NOT ADD SLT PUSH2 0x142 JUMPI PUSH1 0x0 SLOAD PUSH1 0x40 MLOAD PUSH1 0x1 PUSH1 0x1 PUSH1 0xA0 SHL SUB SWAP1 SWAP2 AND DUP2 MSTORE PUSH1 0x20 SWAP1 RETURN JUMPDEST CALLVALUE PUSH2 0x142 JUMPI PUSH1 0x0 CALLDATASIZE PUSH1 0x3 NOT ADD SLT PUSH2 0x142 JUMPI PUSH1 0x20 PUSH1 0x9 SLOAD PUSH1 0x40 MLOAD SWAP1 DUP2 MSTORE RETURN JUMPDEST CALLVALUE PUSH2 0x142 JUMPI PUSH1 0x20 CALLDATASIZE PUSH1 0x3 NOT ADD SLT PUSH2 0x142 JUMPI PUSH1 0x4 CALLDATALOAD PUSH1 0x0 MSTORE PUSH1 0x6 PUSH1 0x20 MSTORE PUSH1 0x80 PUSH1 0x40 PUSH1 0x0 KECCAK256 PUSH2 0x9DC PUSH1 0x1 DUP1 PUSH1 0xA0 SHL SUB DUP3 SLOAD AND SWAP2 PUSH1 0x2 DUP2 ADD SLOAD SWAP1 PUSH1 0xFF PUSH1 0x5 PUSH1 0x4 DUP4 ADD SLOAD SWAP3 ADD SLOAD AND SWAP2 PUSH1 0x40 MLOAD SWAP5 DUP6 MSTORE PUSH1 0x20 DUP6 ADD MSTORE PUSH1 0x40 DUP5 ADD MSTORE PUSH1 0x60 DUP4 ADD SWAP1 PUSH2 0x115D JUMP JUMPDEST RETURN JUMPDEST CALLVALUE PUSH2 0x142 JUMPI PUSH2 0x9EC CALLDATASIZE PUSH2 0x10C8 JUMP JUMPDEST DUP8 PUSH1 0x0 SWAP8 SWAP6 SWAP8 SWAP7 SWAP4 SWAP3 SWAP5 SWAP7 MSTORE PUSH1 0x7 PUSH1 0x20 MSTORE PUSH1 0x40 PUSH1 0x0 KECCAK256 SWAP6 PUSH1 0x1 DUP8 ADD SLOAD PUSH1 0x0 MSTORE PUSH1 0x6 PUSH1 0x20 MSTORE PUSH1 0x40 PUSH1 0x0 KECCAK256 SWAP8 PUSH1 0x1 DUP1 PUSH1 0xA0 SHL SUB DUP10 SLOAD AND CALLER SUB PUSH2 0xC28 JUMPI PUSH1 0xFF PUSH1 0x3 DUP10 ADD SLOAD AND PUSH1 0x4 DUP2 LT ISZERO PUSH2 0x3F1 JUMPI PUSH1 0x1 SUB PUSH2 0xBEE JUMPI PUSH1 0x4 DUP9 ADD SLOAD TIMESTAMP GT PUSH2 0xBB8 JUMPI PUSH2 0xA62 PUSH2 0xA58 PUSH1 0x20 SWAP7 TIMESTAMP PUSH2 0x116A JUMP JUMPDEST PUSH1 0x2 SLOAD LT ISZERO PUSH2 0x1177 JUMP JUMPDEST DUP7 PUSH1 0x0 MSTORE PUSH1 0x8 DUP6 MSTORE PUSH2 0xA7C PUSH1 0xFF PUSH1 0x40 PUSH1 0x0 KECCAK256 SLOAD AND ISZERO PUSH2 0x11B3 JUMP JUMPDEST PUSH2 0xAA8 PUSH1 0x1 DUP1 PUSH1 0xA0 SHL SUB PUSH1 0x1 SLOAD AND SWAP4 PUSH1 0x40 MLOAD SWAP8 DUP9 SWAP7 DUP8 SWAP6 DUP7 SWAP6 PUSH4 0x61971B87 PUSH1 0xE1 SHL DUP8 MSTORE PUSH1 0x4 DUP8 ADD PUSH2 0x122E JUMP JUMPDEST SUB SWAP2 GAS STATICCALL DUP1 ISZERO PUSH2 0x81D JUMPI PUSH2 0xAC3 SWAP2 PUSH1 0x0 SWAP2 PUSH2 0xB99 JUMPI POP PUSH2 0x129D JUMP JUMPDEST PUSH1 0x0 MSTORE PUSH1 0x8 PUSH1 0x20 MSTORE PUSH1 0x40 PUSH1 0x0 KECCAK256 PUSH1 0xFF NOT SWAP1 PUSH1 0x1 DUP3 DUP3 SLOAD AND OR SWAP1 SSTORE PUSH1 0x3 DUP2 DUP2 DUP5 ADD SLOAD AND OR PUSH1 0x3 DUP4 ADD SSTORE PUSH1 0x3 PUSH1 0x5 DUP5 ADD SWAP2 DUP3 SLOAD AND OR SWAP1 SSTORE PUSH1 0x0 DUP1 DUP1 DUP1 PUSH2 0xB10 PUSH1 0x2 DUP7 ADD SLOAD PUSH1 0x3 DUP9 ADD SLOAD SWAP1 PUSH2 0x12E9 JUMP JUMPDEST DUP7 SLOAD PUSH1 0x1 PUSH1 0x1 PUSH1 0xA0 SHL SUB AND GAS CALL PUSH2 0xB25 PUSH2 0x12F6 JUMP JUMPDEST POP ISZERO PUSH2 0xB62 JUMPI PUSH1 0x1 ADD SLOAD SWAP1 SLOAD PUSH1 0x1 PUSH1 0x1 PUSH1 0xA0 SHL SUB AND SWAP2 PUSH32 0x529FA1829DA1524D0551F6B102CB25292F3B2DB723DC17B55FE07044D76B2072 PUSH1 0x0 DUP1 LOG4 STOP JUMPDEST PUSH1 0x40 MLOAD PUSH3 0x461BCD PUSH1 0xE5 SHL DUP2 MSTORE PUSH1 0x20 PUSH1 0x4 DUP3 ADD MSTORE PUSH1 0xF PUSH1 0x24 DUP3 ADD MSTORE PUSH15 0x151C985B9CD9995C8819985A5B1959 PUSH1 0x8A SHL PUSH1 0x44 DUP3 ADD MSTORE PUSH1 0x64 SWAP1 REVERT JUMPDEST PUSH2 0xBB2 SWAP2 POP PUSH1 0x20 RETURNDATASIZE PUSH1 0x20 GT PUSH2 0x816 JUMPI PUSH2 0x808 DUP2 DUP4 PUSH2 0x11F4 JUMP JUMPDEST DUP7 PUSH2 0x660 JUMP JUMPDEST PUSH1 0x40 MLOAD PUSH3 0x461BCD PUSH1 0xE5 SHL DUP2 MSTORE PUSH1 0x20 PUSH1 0x4 DUP3 ADD MSTORE PUSH1 0xE PUSH1 0x24 DUP3 ADD MSTORE PUSH14 0x115CD8DC9BDDC8195E1C1A5C9959 PUSH1 0x92 SHL PUSH1 0x44 DUP3 ADD MSTORE PUSH1 0x64 SWAP1 REVERT JUMPDEST PUSH1 0x40 MLOAD PUSH3 0x461BCD PUSH1 0xE5 SHL DUP2 MSTORE PUSH1 0x20 PUSH1 0x4 DUP3 ADD MSTORE PUSH1 0x12 PUSH1 0x24 DUP3 ADD MSTORE PUSH18 0x496E76616C69642061707020737461747573 PUSH1 0x70 SHL PUSH1 0x44 DUP3 ADD MSTORE PUSH1 0x64 SWAP1 REVERT JUMPDEST PUSH1 0x40 MLOAD PUSH3 0x461BCD PUSH1 0xE5 SHL DUP2 MSTORE PUSH1 0x20 PUSH1 0x4 DUP3 ADD MSTORE PUSH1 0x11 PUSH1 0x24 DUP3 ADD MSTORE PUSH17 0x2737BA103634B9BA34B7339037BBB732B9 PUSH1 0x79 SHL PUSH1 0x44 DUP3 ADD MSTORE PUSH1 0x64 SWAP1 REVERT JUMPDEST CALLVALUE PUSH2 0x142 JUMPI PUSH1 0x0 CALLDATASIZE PUSH1 0x3 NOT ADD SLT PUSH2 0x142 JUMPI PUSH1 0x20 PUSH1 0x5 SLOAD PUSH1 0x40 MLOAD SWAP1 DUP2 MSTORE RETURN JUMPDEST CALLVALUE PUSH2 0x142 JUMPI PUSH1 0x0 CALLDATASIZE PUSH1 0x3 NOT ADD SLT PUSH2 0x142 JUMPI PUSH1 0x20 PUSH1 0x3 SLOAD PUSH1 0x40 MLOAD SWAP1 DUP2 MSTORE RETURN JUMPDEST CALLVALUE PUSH2 0x142 JUMPI PUSH1 0x0 CALLDATASIZE PUSH1 0x3 NOT ADD SLT PUSH2 0x142 JUMPI PUSH1 0x20 PUSH1 0xA SLOAD PUSH1 0x40 MLOAD SWAP1 DUP2 MSTORE RETURN JUMPDEST CALLVALUE PUSH2 0x142 JUMPI PUSH1 0x20 CALLDATASIZE PUSH1 0x3 NOT ADD SLT PUSH2 0x142 JUMPI PUSH1 0x4 CALLDATALOAD PUSH1 0x9 SLOAD DUP2 LT ISZERO PUSH2 0x142 JUMPI PUSH1 0x20 SWAP1 PUSH1 0x9 PUSH1 0x0 MSTORE PUSH32 0x6E1540171B6C0C960B71A7020D9F60077F6AF931A8BBF590DA0223DACF75C7AF ADD SLOAD PUSH1 0x40 MLOAD SWAP1 DUP2 MSTORE RETURN JUMPDEST CALLVALUE PUSH2 0x142 JUMPI PUSH1 0x0 CALLDATASIZE PUSH1 0x3 NOT ADD SLT PUSH2 0x142 JUMPI PUSH1 0x20 PUSH1 0x4 SLOAD PUSH1 0x40 MLOAD SWAP1 DUP2 MSTORE RETURN JUMPDEST CALLVALUE PUSH2 0x142 JUMPI PUSH1 0x0 CALLDATASIZE PUSH1 0x3 NOT ADD SLT PUSH2 0x142 JUMPI PUSH1 0x20 PUSH1 0x2 SLOAD PUSH1 0x40 MLOAD SWAP1 DUP2 MSTORE RETURN JUMPDEST PUSH2 0xD51 CALLDATASIZE PUSH2 0x10C8 JUMP JUMPDEST SWAP1 SWAP3 SWAP8 SWAP5 DUP8 PUSH1 0x0 SWAP8 SWAP6 SWAP8 MSTORE PUSH1 0x6 PUSH1 0x20 MSTORE PUSH1 0x40 PUSH1 0x0 KECCAK256 SWAP6 PUSH1 0xFF PUSH1 0x5 DUP9 ADD SLOAD AND PUSH1 0x5 DUP2 LT ISZERO PUSH2 0x3F1 JUMPI PUSH1 0x1 SUB PUSH2 0x1060 JUMPI POP PUSH1 0x4 DUP7 ADD SLOAD CALLVALUE LT PUSH2 0x1025 JUMPI PUSH2 0xA58 PUSH2 0xD98 SWAP2 TIMESTAMP PUSH2 0x116A JUMP JUMPDEST DUP4 PUSH1 0x0 MSTORE PUSH1 0x8 PUSH1 0x20 MSTORE PUSH2 0xDB3 PUSH1 0xFF PUSH1 0x40 PUSH1 0x0 KECCAK256 SLOAD AND ISZERO PUSH2 0x11B3 JUMP JUMPDEST PUSH1 0x40 MLOAD SWAP8 PUSH1 0x20 DUP10 ADD DUP9 DUP2 MSTORE CALLER PUSH1 0x60 SHL PUSH1 0x40 DUP12 ADD MSTORE DUP6 PUSH1 0x54 DUP12 ADD MSTORE PUSH1 0x54 DUP11 MSTORE DUP10 PUSH1 0x80 DUP2 ADD LT PUSH8 0xFFFFFFFFFFFFFFFF PUSH1 0x80 DUP13 ADD GT OR PUSH2 0xFB1 JUMPI PUSH1 0x80 DUP11 ADD PUSH1 0x40 MSTORE DUP10 MLOAD SWAP1 KECCAK256 SWAP9 DUP10 PUSH1 0x0 MSTORE PUSH1 0x7 PUSH1 0x20 MSTORE PUSH1 0xFF PUSH1 0x3 PUSH1 0x40 PUSH1 0x0 KECCAK256 ADD SLOAD AND PUSH1 0x4 DUP2 LT ISZERO PUSH2 0x3F1 JUMPI PUSH2 0xFE6 JUMPI POP SWAP1 PUSH1 0x20 SWAP3 SWAP2 PUSH1 0x1 DUP1 PUSH1 0xA0 SHL SUB SWAP8 PUSH2 0xE4C DUP10 PUSH1 0x1 SLOAD AND SWAP4 PUSH1 0x40 MLOAD SWAP8 DUP9 SWAP7 DUP8 SWAP6 DUP7 SWAP6 PUSH4 0x61971B87 PUSH1 0xE1 SHL DUP8 MSTORE PUSH1 0x4 DUP8 ADD PUSH2 0x122E JUMP JUMPDEST SUB SWAP2 GAS STATICCALL DUP1 ISZERO PUSH2 0x81D JUMPI PUSH2 0xE67 SWAP2 PUSH1 0x0 SWAP2 PUSH2 0xFC7 JUMPI POP PUSH2 0x129D JUMP JUMPDEST PUSH1 0x0 MSTORE PUSH1 0x8 PUSH1 0x20 MSTORE PUSH1 0x40 PUSH1 0x0 KECCAK256 SWAP1 PUSH1 0xFF NOT SWAP2 PUSH1 0x1 DUP4 DUP3 SLOAD AND OR SWAP1 SSTORE PUSH1 0x5 PUSH1 0x2 DUP4 DUP3 DUP5 ADD SLOAD AND OR SWAP2 ADD SSTORE PUSH2 0xE9C PUSH1 0x3 SLOAD TIMESTAMP PUSH2 0x12E9 JUMP JUMPDEST PUSH1 0x40 MLOAD SWAP3 PUSH1 0xA0 DUP5 ADD DUP5 DUP2 LT PUSH8 0xFFFFFFFFFFFFFFFF DUP3 GT OR PUSH2 0xFB1 JUMPI PUSH1 0x40 MSTORE CALLER DUP5 MSTORE PUSH1 0x20 DUP5 ADD DUP6 DUP2 MSTORE PUSH1 0x40 DUP6 ADD SWAP1 CALLVALUE DUP3 MSTORE PUSH1 0x60 DUP7 ADD SWAP3 PUSH1 0x1 DUP5 MSTORE PUSH1 0x80 DUP8 ADD SWAP5 DUP6 MSTORE DUP9 PUSH1 0x0 MSTORE PUSH1 0x7 PUSH1 0x20 MSTORE PUSH1 0x40 PUSH1 0x0 KECCAK256 SWAP7 MLOAD AND PUSH12 0xFFFFFFFFFFFFFFFFFFFFFFFF PUSH1 0xA0 SHL DUP8 SLOAD AND OR DUP7 SSTORE MLOAD PUSH1 0x1 DUP7 ADD SSTORE MLOAD PUSH1 0x2 DUP6 ADD SSTORE PUSH1 0x3 DUP5 ADD SWAP1 MLOAD PUSH1 0x4 DUP2 LT ISZERO PUSH2 0x3F1 JUMPI PUSH1 0xFF PUSH1 0x4 SWAP5 DUP4 SLOAD AND SWAP2 AND OR SWAP1 SSTORE MLOAD SWAP2 ADD SSTORE PUSH1 0xA SLOAD PUSH1 0x1 PUSH1 0x40 SHL DUP2 LT ISZERO PUSH2 0xFB1 JUMPI PUSH1 0x1 DUP2 ADD DUP1 PUSH1 0xA SSTORE DUP2 LT ISZERO PUSH2 0xF9B JUMPI DUP3 SWAP1 PUSH32 0xC65A7BB8D6351C1CF70C95A316CC6A92839C986682D98BC35F958F4883F9D2A8 ADD SSTORE CALLER SWAP2 PUSH32 0xA1E59E5998DE8156750DD856247D14C1222F3A198CC2D74EEEF50113C8686D5A PUSH1 0x0 DUP1 LOG4 STOP JUMPDEST PUSH4 0x4E487B71 PUSH1 0xE0 SHL PUSH1 0x0 MSTORE PUSH1 0x32 PUSH1 0x4 MSTORE PUSH1 0x24 PUSH1 0x0 REVERT JUMPDEST PUSH4 0x4E487B71 PUSH1 0xE0 SHL PUSH1 0x0 MSTORE PUSH1 0x41 PUSH1 0x4 MSTORE PUSH1 0x24 PUSH1 0x0 REVERT JUMPDEST PUSH2 0xFE0 SWAP2 POP PUSH1 0x20 RETURNDATASIZE PUSH1 0x20 GT PUSH2 0x816 JUMPI PUSH2 0x808 DUP2 DUP4 PUSH2 0x11F4 JUMP JUMPDEST DUP8 PUSH2 0x660 JUMP JUMPDEST PUSH1 0x80 PUSH1 0x64 SWAP2 PUSH3 0x461BCD PUSH1 0xE5 SHL DUP3 DUP3 ADD MSTORE PUSH1 0x20 PUSH1 0x84 DUP3 ADD MSTORE PUSH1 0x15 PUSH1 0xA4 DUP3 ADD MSTORE PUSH21 0x223AB83634B1B0BA329030B8383634B1B0BA34B7B7 PUSH1 0x59 SHL PUSH1 0xC4 DUP3 ADD MSTORE ADD REVERT JUMPDEST PUSH1 0x40 MLOAD PUSH3 0x461BCD PUSH1 0xE5 SHL DUP2 MSTORE PUSH1 0x20 PUSH1 0x4 DUP3 ADD MSTORE PUSH1 0x13 PUSH1 0x24 DUP3 ADD MSTORE PUSH19 0x496E73756666696369656E7420657363726F77 PUSH1 0x68 SHL PUSH1 0x44 DUP3 ADD MSTORE PUSH1 0x64 SWAP1 REVERT JUMPDEST PUSH3 0x461BCD PUSH1 0xE5 SHL DUP2 MSTORE PUSH1 0x20 PUSH1 0x4 DUP3 ADD MSTORE PUSH1 0x12 PUSH1 0x24 DUP3 ADD MSTORE PUSH18 0x4C697374696E67206E6F7420616374697665 PUSH1 0x70 SHL PUSH1 0x44 DUP3 ADD MSTORE PUSH1 0x64 SWAP1 REVERT JUMPDEST SWAP2 DUP2 PUSH1 0x1F DUP5 ADD SLT ISZERO PUSH2 0x142 JUMPI DUP3 CALLDATALOAD SWAP2 PUSH8 0xFFFFFFFFFFFFFFFF DUP4 GT PUSH2 0x142 JUMPI PUSH1 0x20 DUP1 DUP6 ADD SWAP5 DUP5 PUSH1 0x5 SHL ADD ADD GT PUSH2 0x142 JUMPI JUMP JUMPDEST SWAP1 PUSH2 0x180 PUSH1 0x3 NOT DUP4 ADD SLT PUSH2 0x142 JUMPI PUSH1 0x4 CALLDATALOAD SWAP2 PUSH1 0x24 CALLDATALOAD SWAP2 PUSH1 0x44 CALLDATALOAD SWAP2 DUP1 PUSH1 0xA4 GT PUSH2 0x142 JUMPI PUSH1 0x64 SWAP2 PUSH2 0x124 SWAP1 DUP3 DUP3 GT PUSH2 0x142 JUMPI PUSH1 0xA4 SWAP3 PUSH2 0x164 SWAP3 DUP2 DUP5 GT PUSH2 0x142 JUMPI SWAP3 CALLDATALOAD SWAP1 PUSH8 0xFFFFFFFFFFFFFFFF DUP3 GT PUSH2 0x142 JUMPI PUSH2 0x1124 SWAP2 PUSH1 0x4 ADD PUSH2 0x1097 JUMP JUMPDEST SWAP1 SWAP2 JUMP JUMPDEST SWAP2 SWAP6 SWAP5 SWAP4 SWAP3 SWAP1 SWAP6 PUSH1 0xA0 DUP4 ADD SWAP7 PUSH1 0x1 DUP1 PUSH1 0xA0 SHL SUB AND DUP4 MSTORE PUSH1 0x20 DUP4 ADD MSTORE PUSH1 0x40 DUP3 ADD MSTORE PUSH1 0x4 DUP3 LT ISZERO PUSH2 0x3F1 JUMPI PUSH1 0x80 SWAP2 PUSH1 0x60 DUP3 ADD MSTORE ADD MSTORE JUMP JUMPDEST SWAP1 PUSH1 0x5 DUP3 LT ISZERO PUSH2 0x3F1 JUMPI MSTORE JUMP JUMPDEST SWAP2 SWAP1 DUP3 SUB SWAP2 DUP3 GT PUSH2 0x371 JUMPI JUMP JUMPDEST ISZERO PUSH2 0x117E JUMPI JUMP JUMPDEST PUSH1 0x40 MLOAD PUSH3 0x461BCD PUSH1 0xE5 SHL DUP2 MSTORE PUSH1 0x20 PUSH1 0x4 DUP3 ADD MSTORE PUSH1 0xD PUSH1 0x24 DUP3 ADD MSTORE PUSH13 0x141C9BDBD9881D1BDBC81BDB19 PUSH1 0x9A SHL PUSH1 0x44 DUP3 ADD MSTORE PUSH1 0x64 SWAP1 REVERT JUMPDEST ISZERO PUSH2 0x11BA JUMPI JUMP JUMPDEST PUSH1 0x40 MLOAD PUSH3 0x461BCD PUSH1 0xE5 SHL DUP2 MSTORE PUSH1 0x20 PUSH1 0x4 DUP3 ADD MSTORE PUSH1 0x12 PUSH1 0x24 DUP3 ADD MSTORE PUSH18 0x139BDB98D948185B1C9958591E481D5CD959 PUSH1 0x72 SHL PUSH1 0x44 DUP3 ADD MSTORE PUSH1 0x64 SWAP1 REVERT JUMPDEST SWAP1 PUSH1 0x1F DUP1 NOT SWAP2 ADD AND DUP2 ADD SWAP1 DUP2 LT PUSH8 0xFFFFFFFFFFFFFFFF DUP3 GT OR PUSH2 0xFB1 JUMPI PUSH1 0x40 MSTORE JUMP JUMPDEST SWAP1 DUP2 PUSH1 0x20 SWAP2 SUB SLT PUSH2 0x142 JUMPI MLOAD DUP1 ISZERO ISZERO DUP2 SUB PUSH2 0x142 JUMPI SWAP1 JUMP JUMPDEST SWAP3 SWAP1 DUP6 SWAP3 SWAP2 PUSH2 0x120 SWAP3 PUSH1 0x40 DUP1 SWAP4 DUP8 CALLDATACOPY PUSH1 0x0 DUP7 DUP5 ADD JUMPDEST PUSH1 0x2 DUP3 LT PUSH2 0x127E JUMPI POP POP POP PUSH1 0xC0 DUP6 ADD CALLDATACOPY PUSH2 0x100 DUP4 ADD DUP2 SWAP1 MSTORE DUP3 ADD MSTORE PUSH2 0x140 SWAP3 PUSH1 0x1 PUSH1 0x1 PUSH1 0xFB SHL SUB DUP2 GT PUSH2 0x142 JUMPI PUSH1 0x5 SHL DUP1 SWAP3 DUP5 DUP4 ADD CALLDATACOPY ADD ADD SWAP1 JUMP JUMPDEST DUP5 DUP1 SWAP7 SWAP8 POP DUP2 DUP2 DUP6 PUSH1 0x1 SWAP6 SWAP7 SWAP8 SWAP9 SWAP5 CALLDATACOPY ADD SWAP4 ADD SWAP2 ADD DUP9 SWAP6 SWAP5 SWAP4 SWAP3 PUSH2 0x1243 JUMP JUMPDEST ISZERO PUSH2 0x12A4 JUMPI JUMP JUMPDEST PUSH1 0x40 MLOAD PUSH3 0x461BCD PUSH1 0xE5 SHL DUP2 MSTORE PUSH1 0x20 PUSH1 0x4 DUP3 ADD MSTORE PUSH1 0x1C PUSH1 0x24 DUP3 ADD MSTORE PUSH32 0x5A4B2070726F6F6620766572696669636174696F6E206661696C656400000000 PUSH1 0x44 DUP3 ADD MSTORE PUSH1 0x64 SWAP1 REVERT JUMPDEST SWAP2 SWAP1 DUP3 ADD DUP1 SWAP3 GT PUSH2 0x371 JUMPI JUMP JUMPDEST RETURNDATASIZE ISZERO PUSH2 0x1331 JUMPI RETURNDATASIZE SWAP1 PUSH8 0xFFFFFFFFFFFFFFFF DUP3 GT PUSH2 0xFB1 JUMPI PUSH1 0x40 MLOAD SWAP2 PUSH2 0x1325 PUSH1 0x1F DUP3 ADD PUSH1 0x1F NOT AND PUSH1 0x20 ADD DUP5 PUSH2 0x11F4 JUMP JUMPDEST DUP3 MSTORE RETURNDATASIZE PUSH1 0x0 PUSH1 0x20 DUP5 ADD RETURNDATACOPY JUMP JUMPDEST PUSH1 0x60 SWAP1 JUMP JUMPDEST ISZERO PUSH2 0x133D JUMPI JUMP JUMPDEST PUSH1 0x40 MLOAD PUSH3 0x461BCD PUSH1 0xE5 SHL DUP2 MSTORE PUSH1 0x20 PUSH1 0x4 DUP3 ADD MSTORE PUSH1 0x12 PUSH1 0x24 DUP3 ADD MSTORE PUSH18 0x2737BA1031B7B73A3930B1BA1037BBB732B9 PUSH1 0x71 SHL PUSH1 0x44 DUP3 ADD MSTORE PUSH1 0x64 SWAP1 REVERT INVALID LOG2 PUSH5 0x6970667358 0x22 SLT KECCAK256 0xC7 MSTORE 0xE0 0xEE 0xF9 0xDA 0xA8 CALLDATALOAD 0xC4 OR SMOD PUSH21 0xE08BE382B69E8D95193EC11A97D9F4689B5F74E364 PUSH20 0x6F6C634300081800330000000000000000000000 "},"methodIdentifiers":{"applicationIds(uint256)":"b30c62e1","applications(bytes32)":"4cafa121","applyForListing(bytes32,bytes32,uint256,uint256[2],uint256[2][2],uint256[2],uint256[])":"18e80d2e","escrowTimeout()":"605c6d63","expireApplication(bytes32)":"efe4bb69","freshnessDelta()":"22a4c768","getApplicationCount()":"58a6f4ca","getApplicationDetails(bytes32)":"f0dc3db0","getListingCount()":"87ed92d7","getListingDetails(bytes32)":"7b356561","listingIds(uint256)":"52bea360","listings(bytes32)":"c18b8db4","minDeposit()":"41b3d185","owner()":"8da5cb5b","registerListing(bytes32,bytes32,uint256,bytes32,uint256,uint256[2],uint256[2][2],uint256[2],uint256[])":"ba247f80","settleApplication(bytes32,bytes32,uint256,uint256[2],uint256[2][2],uint256[2],uint256[])":"68e8ba69","slashPercent()":"6343b15f","updateEscrowTimeout(uint256)":"e84a571c","updateFreshnessDelta(uint256)":"e6c18d34","updateMinDeposit(uint256)":"9a7be471","usedNonces(bytes32)":"feb61724","zkVerifier()":"d6df096d"}}}}}