{
  "_format": "hh-sol-artifact-1",
  "contractName": "PPREV",
  "sourceName": "contracts/PPREV.sol",
  "abi": [
    {
      "inputs": [
        {
          "internalType": "address",
          "name": "_zkVerifier",
          "type": "address"
        }
      ],
      "stateMutability": "nonpayable",
      "type": "constructor"
    },
    {
      "anonymous": false,
      "inputs": [
        {
          "indexed": true,
          "internalType": "bytes32",
          "name": "appId",
          "type": "bytes32"
        },
        {
          "indexed": true,
          "internalType": "bytes32",
          "name": "adHash",
          "type": "bytes32"
        }
      ],
      "name": "ApplicationExpired",
      "type": "event"
    },
    {
      "anonymous": false,
      "inputs": [
        {
          "indexed": true,
          "internalType": "bytes32",
          "name": "appId",
          "type": "bytes32"
        },
        {
          "indexed": true,
          "internalType": "bytes32",
          "name": "adHash",
          "type": "bytes32"
        },
        {
          "indexed": true,
          "internalType": "address",
          "name": "tenant",
          "type": "address"
        }
      ],
      "name": "ApplicationSubmitted",
      "type": "event"
    },
    {
      "anonymous": false,
      "inputs": [
        {
          "indexed": true,
          "internalType": "bytes32",
          "name": "appId",
          "type": "bytes32"
        },
        {
          "indexed": false,
          "internalType": "uint256",
          "name": "slashedAmount",
          "type": "uint256"
        },
        {
          "indexed": false,
          "internalType": "uint256",
          "name": "refunded",
          "type": "uint256"
        }
      ],
      "name": "EscrowSlashed",
      "type": "event"
    },
    {
      "anonymous": false,
      "inputs": [
        {
          "indexed": true,
          "internalType": "bytes32",
          "name": "adHash",
          "type": "bytes32"
        },
        {
          "indexed": true,
          "internalType": "address",
          "name": "owner",
          "type": "address"
        },
        {
          "indexed": false,
          "internalType": "bytes32",
          "name": "policyId",
          "type": "bytes32"
        }
      ],
      "name": "ListingRegistered",
      "type": "event"
    },
    {
      "anonymous": false,
      "inputs": [
        {
          "indexed": true,
          "internalType": "bytes32",
          "name": "appId",
          "type": "bytes32"
        },
        {
          "indexed": true,
          "internalType": "bytes32",
          "name": "adHash",
          "type": "bytes32"
        },
        {
          "indexed": true,
          "internalType": "address",
          "name": "owner",
          "type": "address"
        }
      ],
      "name": "SettlementCompleted",
      "type": "event"
    },
    {
      "inputs": [
        {
          "internalType": "uint256",
          "name": "",
          "type": "uint256"
        }
      ],
      "name": "applicationIds",
      "outputs": [
        {
          "internalType": "bytes32",
          "name": "",
          "type": "bytes32"
        }
      ],
      "stateMutability": "view",
      "type": "function"
    },
    {
      "inputs": [
        {
          "internalType": "bytes32",
          "name": "",
          "type": "bytes32"
        }
      ],
      "name": "applications",
      "outputs": [
        {
          "internalType": "address",
          "name": "tenant",
          "type": "address"
        },
        {
          "internalType": "bytes32",
          "name": "adHash",
          "type": "bytes32"
        },
        {
          "internalType": "uint256",
          "name": "escrowAmount",
          "type": "uint256"
        },
        {
          "internalType": "enum PPREV.AppStatus",
          "name": "status",
          "type": "uint8"
        },
        {
          "internalType": "uint256",
          "name": "expiresAt",
          "type": "uint256"
        }
      ],
      "stateMutability": "view",
      "type": "function"
    },
    {
      "inputs": [
        {
          "internalType": "bytes32",
          "name": "adHash",
          "type": "bytes32"
        },
        {
          "internalType": "bytes32",
          "name": "nonce",
          "type": "bytes32"
        },
        {
          "internalType": "uint256",
          "name": "tAuth",
          "type": "uint256"
        },
        {
          "internalType": "uint256[2]",
          "name": "proof_a",
          "type": "uint256[2]"
        },
        {
          "internalType": "uint256[2][2]",
          "name": "proof_b",
          "type": "uint256[2][2]"
        },
        {
          "internalType": "uint256[2]",
          "name": "proof_c",
          "type": "uint256[2]"
        },
        {
          "internalType": "uint256[]",
          "name": "pubSignals",
          "type": "uint256[]"
        }
      ],
      "name": "applyForListing",
      "outputs": [],
      "stateMutability": "payable",
      "type": "function"
    },
    {
      "inputs": [],
      "name": "escrowTimeout",
      "outputs": [
        {
          "internalType": "uint256",
          "name": "",
          "type": "uint256"
        }
      ],
      "stateMutability": "view",
      "type": "function"
    },
    {
      "inputs": [
        {
          "internalType": "bytes32",
          "name": "appId",
          "type": "bytes32"
        }
      ],
      "name": "expireApplication",
      "outputs": [],
      "stateMutability": "nonpayable",
      "type": "function"
    },
    {
      "inputs": [],
      "name": "freshnessDelta",
      "outputs": [
        {
          "internalType": "uint256",
          "name": "",
          "type": "uint256"
        }
      ],
      "stateMutability": "view",
      "type": "function"
    },
    {
      "inputs": [],
      "name": "getApplicationCount",
      "outputs": [
        {
          "internalType": "uint256",
          "name": "",
          "type": "uint256"
        }
      ],
      "stateMutability": "view",
      "type": "function"
    },
    {
      "inputs": [
        {
          "internalType": "bytes32",
          "name": "appId",
          "type": "bytes32"
        }
      ],
      "name": "getApplicationDetails",
      "outputs": [
        {
          "internalType": "address",
          "name": "tenant",
          "type": "address"
        },
        {
          "internalType": "bytes32",
          "name": "adHash",
          "type": "bytes32"
        },
        {
          "internalType": "uint256",
          "name": "escrowAmount",
          "type": "uint256"
        },
        {
          "internalType": "enum PPREV.AppStatus",
          "name": "status",
          "type": "uint8"
        },
        {
          "internalType": "uint256",
          "name": "expiresAt",
          "type": "uint256"
        }
      ],
      "stateMutability": "view",
      "type": "function"
    },
    {
      "inputs": [],
      "name": "getListingCount",
      "outputs": [
        {
          "internalType": "uint256",
          "name": "",
          "type": "uint256"
        }
      ],
      "stateMutability": "view",
      "type": "function"
    },
    {
      "inputs": [
        {
          "internalType": "bytes32",
          "name": "adHash",
          "type": "bytes32"
        }
      ],
      "name": "getListingDetails",
      "outputs": [
        {
          "internalType": "address",
          "name": "listingOwner",
          "type": "address"
        },
        {
          "internalType": "bytes32",
          "name": "policyId",
          "type": "bytes32"
        },
        {
          "internalType": "uint256",
          "name": "reqEscrow",
          "type": "uint256"
        },
        {
          "internalType": "enum PPREV.ListingStatus",
          "name": "status",
          "type": "uint8"
        }
      ],
      "stateMutability": "view",
      "type": "function"
    },
    {
      "inputs": [
        {
          "internalType": "uint256",
          "name": "",
          "type": "uint256"
        }
      ],
      "name": "listingIds",
      "outputs": [
        {
          "internalType": "bytes32",
          "name": "",
          "type": "bytes32"
        }
      ],
      "stateMutability": "view",
      "type": "function"
    },
    {
      "inputs": [
        {
          "internalType": "bytes32",
          "name": "",
          "type": "bytes32"
        }
      ],
      "name": "listings",
      "outputs": [
        {
          "internalType": "address",
          "name": "owner",
          "type": "address"
        },
        {
          "internalType": "bytes32",
          "name": "adHash",
          "type": "bytes32"
        },
        {
          "internalType": "bytes32",
          "name": "policyId",
          "type": "bytes32"
        },
        {
          "internalType": "uint256",
          "name": "deposit",
          "type": "uint256"
        },
        {
          "internalType": "uint256",
          "name": "reqEscrow",
          "type": "uint256"
        },
        {
          "internalType": "enum PPREV.ListingStatus",
          "name": "status",
          "type": "uint8"
        },
        {
          "internalType": "uint256",
          "name": "createdAt",
          "type": "uint256"
        }
      ],
      "stateMutability": "view",
      "type": "function"
    },
    {
      "inputs": [],
      "name": "minDeposit",
      "outputs": [
        {
          "internalType": "uint256",
          "name": "",
          "type": "uint256"
        }
      ],
      "stateMutability": "view",
      "type": "function"
    },
    {
      "inputs": [],
      "name": "owner",
      "outputs": [
        {
          "internalType": "address",
          "name": "",
          "type": "address"
        }
      ],
      "stateMutability": "view",
      "type": "function"
    },
    {
      "inputs": [
        {
          "internalType": "bytes32",
          "name": "adHash",
          "type": "bytes32"
        },
        {
          "internalType": "bytes32",
          "name": "policyId",
          "type": "bytes32"
        },
        {
          "internalType": "uint256",
          "name": "reqEscrow",
          "type": "uint256"
        },
        {
          "internalType": "bytes32",
          "name": "nonce",
          "type": "bytes32"
        },
        {
          "internalType": "uint256",
          "name": "tAuth",
          "type": "uint256"
        },
        {
          "internalType": "uint256[2]",
          "name": "proof_a",
          "type": "uint256[2]"
        },
        {
          "internalType": "uint256[2][2]",
          "name": "proof_b",
          "type": "uint256[2][2]"
        },
        {
          "internalType": "uint256[2]",
          "name": "proof_c",
          "type": "uint256[2]"
        },
        {
          "internalType": "uint256[]",
          "name": "pubSignals",
          "type": "uint256[]"
        }
      ],
      "name": "registerListing",
      "outputs": [],
      "stateMutability": "payable",
      "type": "function"
    },
    {
      "inputs": [
        {
          "internalType": "bytes32",
          "name": "appId",
          "type": "bytes32"
        },
        {
          "internalType": "bytes32",
          "name": "nonce",
          "type": "bytes32"
        },
        {
          "internalType": "uint256",
          "name": "tAuth",
          "type": "uint256"
        },
        {
          "internalType": "uint256[2]",
          "name": "proof_a",
          "type": "uint256[2]"
        },
        {
          "internalType": "uint256[2][2]",
          "name": "proof_b",
          "type": "uint256[2][2]"
        },
        {
          "internalType": "uint256[2]",
          "name": "proof_c",
          "type": "uint256[2]"
        },
        {
          "internalType": "uint256[]",
          "name": "pubSignals",
          "type": "uint256[]"
        }
      ],
      "name": "settleApplication",
      "outputs": [],
      "stateMutability": "nonpayable",
      "type": "function"
    },
    {
      "inputs": [],
      "name": "slashPercent",
      "outputs": [
        {
          "internalType": "uint256",
          "name": "",
          "type": "uint256"
        }
      ],
      "stateMutability": "view",
      "type": "function"
    },
    {
      "inputs": [
        {
          "internalType": "uint256",
          "name": "_timeout",
          "type": "uint256"
        }
      ],
      "name": "updateEscrowTimeout",
      "outputs": [],
      "stateMutability": "nonpayable",
      "type": "function"
    },
    {
      "inputs": [
        {
          "internalType": "uint256",
          "name": "_delta",
          "type": "uint256"
        }
      ],
      "name": "updateFreshnessDelta",
      "outputs": [],
      "stateMutability": "nonpayable",
      "type": "function"
    },
    {
      "inputs": [
        {
          "internalType": "uint256",
          "name": "_min",
          "type": "uint256"
        }
      ],
      "name": "updateMinDeposit",
      "outputs": [],
      "stateMutability": "nonpayable",
      "type": "function"
    },
    {
      "inputs": [
        {
          "internalType": "bytes32",
          "name": "",
          "type": "bytes32"
        }
      ],
      "name": "usedNonces",
      "outputs": [
        {
          "internalType": "bool",
          "name": "",
          "type": "bool"
        }
      ],
      "stateMutability": "view",
      "type": "function"
    },
    {
      "inputs": [],
      "name": "zkVerifier",
      "outputs": [
        {
          "internalType": "contract IGroth16Verifier",
          "name": "",
          "type": "address"
        }
      ],
      "stateMutability": "view",
      "type": "function"
    }
  ],
  "bytecode": "0x60803461009757601f61146038819003918201601f19168301916001600160401b0383118484101761009c5780849260209460405283398101031261009757516001600160a01b038116908190036100975761070860025562093a8060035566038d7ea4c68000600455600a60055560018060a01b03193381600054161760005560015416176001556040516113ad90816100b38239f35b600080fd5b634e487b7160e01b600052604160045260246000fdfe608080604052600436101561001357600080fd5b60003560e01c90816318e80d2e14610d485750806322a4c76814610d2a57806341b3d18514610d0c5780634cafa1211461014757806352bea36014610cbb57806358a6f4ca14610c9d578063605c6d6314610c7f5780636343b15f14610c6157806368e8ba69146109de5780637b3565611461097d57806387ed92d71461095f5780638da5cb5b146109365780639a7be47114610908578063b30c62e1146108b7578063ba247f801461050c578063c18b8db41461048c578063d6df096d14610463578063e6c18d3414610435578063e84a571c14610407578063efe4bb691461019f578063f0dc3db0146101475763feb617241461011157600080fd5b34610142576020366003190112610142576004356000526008602052602060ff604060002054166040519015158152f35b600080fd5b34610142576020366003190112610142576004356000526007602052604060002060018060a01b0381541661019b600183015492600281015490600460ff6003830154169101549160405195869586611128565b0390f35b3461014257602080600319360112610142576004359081600052600781526040600020906001820190815460005260068152604060002091600384019283549360ff851660048110156103f1576001036103be576004860154421115610387576002860154956005548088029088820414881517156103715760646102269104809861116a565b958692600260ff198093161790556001600585019182541617905581610312575b5050846102aa575b50917f711fc573a5d838be7424b56fc64bc507ea1a01f9aa87710ea0c3135823b0dfb493916040935492845193877fdcddb7997ee5c16a762af6c6201ee61fe6156ebd42f81e0b26514041879529f8600080a38352820152a2005b5460009081908190819088906001600160a01b03165af16102c96112f6565b50156102d5578561024f565b60405162461bcd60e51b815260048101839052601560248201527414db185cda081d1c985b9cd9995c8819985a5b1959605a1b6044820152606490fd5b546000918291829182916001600160a01b03165af161032f6112f6565b501561033c578387610247565b60405162461bcd60e51b815260048101849052600d60248201526c1499599d5b990819985a5b1959609a1b6044820152606490fd5b634e487b7160e01b600052601160045260246000fd5b60405162461bcd60e51b815260048101859052600f60248201526e139bdd081e595d08195e1c1a5c9959608a1b6044820152606490fd5b60405162461bcd60e51b815260048101859052600b60248201526a4e6f742070656e64696e6760a81b6044820152606490fd5b634e487b7160e01b600052602160045260246000fd5b346101425760203660031901126101425761042d60018060a01b03600054163314611336565b600435600355005b346101425760203660031901126101425761045b60018060a01b03600054163314611336565b600435600255005b34610142576000366003190112610142576001546040516001600160a01b039091168152602090f35b3461014257602036600319011261014257600435600052600660205260e0604060002060018060a01b038154169061050560018201549160028101546003820154600483015491600660ff60058601541694015495604051978852602088015260408701526060860152608085015260a084019061115d565b60c0820152f35b6101c036600319011261014257600435602490813591606435903660e4116101425761016490368211610142576101a4368111610142573567ffffffffffffffff9081811161014257610563903690600401611097565b9094866000526020956006875260ff6005604060002001541660058110156107c65761087a57600454341061083f5761059e6084354261116a565b906105af6002926002541015611177565b82600052600888526105c960ff60406000205416156111b3565b60018054604080516361971b8760e11b815292996001600160a01b0397939592881692909160a46004880137600060e48c604489015b84841061082957505050505060409060c48601376101206101048501526101248401829052610144926001600160fb1b038311610142578a9385809492819360051b80918484013781010301915afa801561081d57610666916000916107f0575b5061129d565b60005260088552604060002060ff199085828254161790556040519260e0840190848210908211176107db576040523383528583019087825260408401898152606085013481526080860191604435835260a087019489865260c08801964288528c60005260068c5260406000209851166bffffffffffffffffffffffff60a01b89541617885551898801555160028701555160038601555160048501556005840191519060058210156107c6579060ff839260069594541691161790555191015560095491600160401b8310156107b15782018060095582101561079d575090827fde1a0a8f69e2e443b182732a7fc398b200d305224729601300dc1be13185d60d9260096000527f6e1540171b6c0c960b71a7020d9f60077f6af931a8bbf590da0223dacf75c7af01556040519384523393a3005b634e487b7160e01b60009081526032600452fd5b50634e487b7160e01b60009081526041600452fd5b85634e487b7160e01b60005260216004526000fd5b84634e487b7160e01b60005260416004526000fd5b6108109150883d8a11610816575b61080881836111f4565b810190611216565b8a610660565b503d6107fe565b6040513d6000823e3d90fd5b6040818185819437019201920191908d906105ff565b60405162461bcd60e51b81526004810188905260148187015273125b9cdd59999a58da595b9d0819195c1bdcda5d60621b6044820152606490fd5b60405162461bcd60e51b815260048101889052601681870152754c697374696e6720616c72656164792065786973747360501b6044820152606490fd5b3461014257602036600319011261014257600435600a5481101561014257602090600a6000527fc65a7bb8d6351c1cf70c95a316cc6a92839c986682d98bc35f958f4883f9d2a80154604051908152f35b346101425760203660031901126101425761092e60018060a01b03600054163314611336565b600480359055005b34610142576000366003190112610142576000546040516001600160a01b039091168152602090f35b34610142576000366003190112610142576020600954604051908152f35b34610142576020366003190112610142576004356000526006602052608060406000206109dc60018060a01b038254169160028101549060ff60056004830154920154169160405194855260208501526040840152606083019061115d565bf35b34610142576109ec366110c8565b87600097959796939294965260076020526040600020956001870154600052600660205260406000209760018060a01b038954163303610c285760ff60038901541660048110156103f157600103610bee5760048801544211610bb857610a62610a586020964261116a565b6002541015611177565b8660005260088552610a7c60ff60406000205416156111b3565b610aa860018060a01b036001541693604051978896879586956361971b8760e11b87526004870161122e565b03915afa801561081d57610ac391600091610b99575061129d565b6000526008602052604060002060ff19906001828254161790556003818184015416176003830155600360058401918254161790556000808080610b1060028601546003880154906112e9565b86546001600160a01b03165af1610b256112f6565b5015610b62576001015490546001600160a01b0316917f529fa1829da1524d0551f6b102cb25292f3b2db723dc17b55fe07044d76b2072600080a4005b60405162461bcd60e51b815260206004820152600f60248201526e151c985b9cd9995c8819985a5b1959608a1b6044820152606490fd5b610bb2915060203d6020116108165761080881836111f4565b86610660565b60405162461bcd60e51b815260206004820152600e60248201526d115cd8dc9bddc8195e1c1a5c995960921b6044820152606490fd5b60405162461bcd60e51b8152602060048201526012602482015271496e76616c6964206170702073746174757360701b6044820152606490fd5b60405162461bcd60e51b81526020600482015260116024820152702737ba103634b9ba34b7339037bbb732b960791b6044820152606490fd5b34610142576000366003190112610142576020600554604051908152f35b34610142576000366003190112610142576020600354604051908152f35b34610142576000366003190112610142576020600a54604051908152f35b34610142576020366003190112610142576004356009548110156101425760209060096000527f6e1540171b6c0c960b71a7020d9f60077f6af931a8bbf590da0223dacf75c7af0154604051908152f35b34610142576000366003190112610142576020600454604051908152f35b34610142576000366003190112610142576020600254604051908152f35b610d51366110c8565b9092979487600097959752600660205260406000209560ff60058801541660058110156103f15760010361106057506004860154341061102557610a58610d98914261116a565b836000526008602052610db360ff60406000205416156111b3565b60405197602089018881523360601b60408b01528560548b015260548a5289608081011067ffffffffffffffff60808c011117610fb15760808a01604052895190209889600052600760205260ff6003604060002001541660048110156103f157610fe65750906020929160018060a01b0397610e4c896001541693604051978896879586956361971b8760e11b87526004870161122e565b03915afa801561081d57610e6791600091610fc7575061129d565b600052600860205260406000209060ff19916001838254161790556005600283828401541617910155610e9c600354426112e9565b6040519260a0840184811067ffffffffffffffff821117610fb1576040523384526020840185815260408501903482526060860192600184526080870194855288600052600760205260406000209651166bffffffffffffffffffffffff60a01b87541617865551600186015551600285015560038401905160048110156103f15760ff600494835416911617905551910155600a54600160401b811015610fb1576001810180600a55811015610f9b5782907fc65a7bb8d6351c1cf70c95a316cc6a92839c986682d98bc35f958f4883f9d2a8015533917fa1e59e5998de8156750dd856247d14c1222f3a198cc2d74eeef50113c8686d5a600080a4005b634e487b7160e01b600052603260045260246000fd5b634e487b7160e01b600052604160045260246000fd5b610fe0915060203d6020116108165761080881836111f4565b87610660565b608060649162461bcd60e51b8282015260206084820152601560a482015274223ab83634b1b0ba329030b8383634b1b0ba34b7b760591b60c482015201fd5b60405162461bcd60e51b8152602060048201526013602482015272496e73756666696369656e7420657363726f7760681b6044820152606490fd5b62461bcd60e51b81526020600482015260126024820152714c697374696e67206e6f742061637469766560701b6044820152606490fd5b9181601f840112156101425782359167ffffffffffffffff8311610142576020808501948460051b01011161014257565b90610180600319830112610142576004359160243591604435918060a41161014257606491610124908282116101425760a492610164928184116101425792359067ffffffffffffffff82116101425761112491600401611097565b9091565b9195949392909560a083019660018060a01b031683526020830152604082015260048210156103f15760809160608201520152565b9060058210156103f15752565b9190820391821161037157565b1561117e57565b60405162461bcd60e51b815260206004820152600d60248201526c141c9bdbd9881d1bdbc81bdb19609a1b6044820152606490fd5b156111ba57565b60405162461bcd60e51b8152602060048201526012602482015271139bdb98d948185b1c9958591e481d5cd95960721b6044820152606490fd5b90601f8019910116810190811067ffffffffffffffff821117610fb157604052565b90816020910312610142575180151581036101425790565b92908592916101209260408093873760008684015b6002821061127e5750505060c08501376101008301819052820152610140926001600160fb1b0381116101425760051b809284830137010190565b8480969750818185600195969798943701930191018895949392611243565b156112a457565b60405162461bcd60e51b815260206004820152601c60248201527f5a4b2070726f6f6620766572696669636174696f6e206661696c6564000000006044820152606490fd5b9190820180921161037157565b3d15611331573d9067ffffffffffffffff8211610fb15760405191611325601f8201601f1916602001846111f4565b82523d6000602084013e565b606090565b1561133d57565b60405162461bcd60e51b81526020600482015260126024820152712737ba1031b7b73a3930b1ba1037bbb732b960711b6044820152606490fdfea2646970667358221220c752e0eef9daa835c4170774e08be382b69e8d95193ec11a97d9f4689b5f74e364736f6c63430008180033",
  "linkReferences": {},
  "deployedLinkReferences": {}
}