{
  "_format": "hh-sol-artifact-1",
  "contractName": "Groth16Verifier",
  "sourceName": "contracts/Groth16Verifier.sol",
  "abi": [
    {
      "inputs": [],
      "stateMutability": "nonpayable",
      "type": "constructor"
    },
    {
      "inputs": [],
      "name": "owner",
      "outputs": [
        {
          "internalType": "address",
          "name": "",
          "type": "address"
        }
      ],
      "stateMutability": "view",
      "type": "function"
    },
    {
      "inputs": [
        {
          "internalType": "uint256[2]",
          "name": "alpha1",
          "type": "uint256[2]"
        },
        {
          "internalType": "uint256[2][2]",
          "name": "beta2",
          "type": "uint256[2][2]"
        },
        {
          "internalType": "uint256[2][2]",
          "name": "gamma2",
          "type": "uint256[2][2]"
        },
        {
          "internalType": "uint256[2][2]",
          "name": "delta2",
          "type": "uint256[2][2]"
        },
        {
          "internalType": "uint256[2][]",
          "name": "IC",
          "type": "uint256[2][]"
        }
      ],
      "name": "setVerifyingKey",
      "outputs": [],
      "stateMutability": "nonpayable",
      "type": "function"
    },
    {
      "inputs": [
        {
          "internalType": "uint256[2]",
          "name": "a",
          "type": "uint256[2]"
        },
        {
          "internalType": "uint256[2][2]",
          "name": "b",
          "type": "uint256[2][2]"
        },
        {
          "internalType": "uint256[2]",
          "name": "c",
          "type": "uint256[2]"
        },
        {
          "internalType": "uint256[]",
          "name": "input",
          "type": "uint256[]"
        }
      ],
      "name": "verifyProof",
      "outputs": [
        {
          "internalType": "bool",
          "name": "",
          "type": "bool"
        }
      ],
      "stateMutability": "view",
      "type": "function"
    },
    {
      "inputs": [],
      "name": "vkSet",
      "outputs": [
        {
          "internalType": "bool",
          "name": "",
          "type": "bool"
        }
      ],
      "stateMutability": "view",
      "type": "function"
    }
  ],
  "bytecode": "0x6080806040523461002857600f80546001600160a01b03191633179055610dac908161002e8239f35b600080fdfe6080604052600436101561001257600080fd5b6000803560e01c908163211e1fcc1461005a575080638da5cb5b1461005557806399324039146100505763c32e370e1461004b57600080fd5b610396565b6102b0565b610081565b3461007e578060031936011261007e5760ff600f5460a01c16151560805260206080f35b80fd5b346100aa5760003660031901126100aa57600f546040516001600160a01b039091168152602090f35b600080fd5b634e487b7160e01b600052604160045260246000fd5b6040810190811067ffffffffffffffff8211176100e157604052565b6100af565b6080810190811067ffffffffffffffff8211176100e157604052565b90601f8019910116810190811067ffffffffffffffff8211176100e157604052565b919060405192610133846100c5565b8390604081019283116100aa57905b82821061014e57505050565b8135815260209182019101610142565b80602312156100aa5760405190610174826100c5565b816044916044116100aa576004905b8282106101905750505090565b8135815260209182019101610183565b9080601f830112156100aa576101b591610124565b90565b9060408051926101c7846100c5565b8360c4918060c4116100aa576044915b8383106101e5575050505050565b602085916101f384866101a0565b8152019201916101d7565b80606312156100aa576101b5906101b8565b8060e312156100aa576040805191610227836100c5565b82610144918083116100aa5760c4915b83831061024657505050505090565b6020859161025484866101a0565b815201920191610237565b8061016312156100aa576040805191610277836100c5565b826101c4918083116100aa57610144915b83831061029757505050505090565b602085916102a584866101a0565b815201920191610288565b346100aa576101e03660031901126100aa576102cb3661015e565b6102d4366101fe565b906102de36610210565b6102e73661025f565b906101c4359367ffffffffffffffff938486116100aa57366023870112156100aa5785600401359485116100e1576020956040966040519661032f60208260051b0189610102565b8088526024602089019160061b840101923684116100aa57602401905b83821061036357505050506103619550610652565b005b828a9161037036856101a0565b81520191019061034c565b906004916044116100aa57565b9060c491610104116100aa57565b346100aa576101203660031901126100aa576103b13661037b565b3660c4116100aa576103c236610388565b90610104359067ffffffffffffffff908183116100aa57366023840112156100aa5782600401359182116100aa573660248360051b850101116100aa576104229360246104109401916108d6565b60405190151581529081906020820190565b0390f35b634e487b7160e01b600052601160045260246000fd5b60005b6002811061044b575050565b6001906020835193019281550161043f565b9060005b6002811061046e57505050565b600190602083519301928185015501610461565b600280916000905b8282106104975750505050565b826020826104a8600194518861045d565b0194019101909261048a565b6006916000915b600290818410156104e357906020826104d7600194518861045d565b019401920191926104bb565b5050915050565b600a916000915b600290818410156104e3579060208261050d600194518861045d565b019401920191926104f1565b600e546000906000600e558061052d575050565b6001916001600160ff1b038216820361058d57600e600052600080516020610d578339815191529160011b8201915b8281106105695750505050565b6002810184825b8281106105825750505060020161055c565b848155018590610570565b610426565b634e487b7160e01b600052603260045260246000fd5b80518210156105bc5760209160051b010190565b610592565b600e54156105bc57600e600052600080516020610d5783398151915290600090565b600e548110156105bc57600e60005260011b600080516020610d578339815191520190600090565b600e5490680100000000000000008210156100e1576001820180600e558210156105bc5761065091600e60005260011b600080516020610d578339815191520161045d565b565b600f54949594909392906001600160a01b031633036106d5576106836106889261067e61068d9661043c565b610482565b6104b4565b6104ea565b610695610519565b60005b82518110156106bd57806106b76106b1600193866105a8565b5161060b565b01610698565b50600f805460ff60a01b1916600160a01b1790559050565b60405162461bcd60e51b81526020600482015260096024820152682737ba1037bbb732b960b91b6044820152606490fd5b906001820180921161058d57565b1561071b57565b60405162461bcd60e51b8152602060048201526015602482015274092dce0eae840d8cadccee8d040dad2e6dac2e8c6d605b1b6044820152606490fd5b60405190600080835b6002821061077557505050610650826100c5565b6001602081928554815201930191019091610761565b60405191906000835b600282106107a857505050610650826100c5565b6001602081928554815201930191019091610794565b91908110156105bc5760051b0190565b156107d557565b60405162461bcd60e51b815260206004820152601860248201527f496e7075742065786365656473206669656c642073697a6500000000000000006044820152606490fd5b60405190610827826100c5565b6002806000845b82821061083b5750505050565b82602060019261084a8761078b565b81520194019101909261082e565b604051610864816100c5565b6006916000825b60029081831015610893579060206001926108858861078b565b81520195019101909361086b565b505050909150565b6040516108a7816100c5565b600a916000825b60029081831015610893579060206001926108c88861078b565b8152019501910190936108ae565b93929190916108f26108ee600f5460ff9060a01c1690565b1590565b6109fe579061090c61090383610706565b600e5414610714565b61091d6109176105c1565b5061078b565b916000915b8183106109815750505061094361093e6101b594953690610124565b610b76565b9161094d366101b8565b91610956610758565b61095e61081a565b9061097261096a610858565b943690610124565b9461097b61089b565b96610c2d565b9091926109f56001916109c07f30644e72e131a029b85045b68181585d97816a916871ca8d3c208c16d87cfd476109b98888886107be565b35106107ce565b6109ef6109d46109cf88610706565b6105e3565b506109ea6109e38989896107be565b359161078b565b610a51565b90610ae8565b93019190610922565b50600193505050565b6040519061030080830183811067ffffffffffffffff8211176100e157604052368337565b604051906020820182811067ffffffffffffffff8211176100e1576040526020368337565b91906040908151610a61816100c5565b8236823780948351606081019381851067ffffffffffffffff8611176100e1576020606093879687528436853780518452015160208301528482015260076107cf195a01fa15610aae5750565b5162461bcd60e51b81526020600482015260146024820152731150c81cd8d85b185c881b5d5b0819985a5b195960621b6044820152606490fd5b919091604080916080825191610afd836100c5565b833684376020839781865193610b12856100e6565b85368637805185520151828401528051868401520151606082015260066107cf195a01fa15610b3e5750565b5162461bcd60e51b81526020600482015260126024820152711150c81859191a5d1a5bdb8819985a5b195960721b6044820152606490fd5b60408051610b83816100c5565b36903780511580610bde575b6101b557602060405191610ba2836100c5565b805183527f30644e72e131a029b85045b68181585d97816a916871ca8d3c208c16d87cfd47918291015106810390811161058d57602082015290565b50602081015115610b8f565b15610bf157565b60405162461bcd60e51b815260206004820152601460248201527314185a5c9a5b99c818da1958dac819985a5b195960621b6044820152606490fd5b909560a061030098939496610d5098610c44610a07565b9785899651875260209a8b809a81998298838098818098015182850152610c6c815160200190565b51604085015280515160608501520180516020015160808401525151910152805160c08e0152015160e08c01528051602001516101008c01528051516101208c0152018051602001516101408b015251516101608a015280516101808a015201516101a08801528051602001516101c08801528051516101e0880152018051602001516102008701525151610220860152805161024086015201516102608401528051602001516102808401528051516102a0840152018051602001516102c083015251516102e0820152610d3f610a2c565b93849160086107cf195a01fa610bea565b5115159056febb7b4a454dc3493923482f07822329ed19e8244eff582cc204f8554c3620c3fda264697066735822122097eb8069e1700ebd0d353c8abe1fed693e109f323124b8daafade3727e7eaae664736f6c63430008180033",
  "linkReferences": {},
  "deployedLinkReferences": {}
}